{
  "contractName": "IntelPropertyTokens",
  "abi": [
    {
      "inputs": [],
      "stateMutability": "nonpayable",
      "type": "constructor"
    },
    {
      "anonymous": false,
      "inputs": [
        {
          "indexed": true,
          "internalType": "address",
          "name": "owner",
          "type": "address"
        },
        {
          "indexed": true,
          "internalType": "address",
          "name": "spender",
          "type": "address"
        },
        {
          "indexed": false,
          "internalType": "uint256",
          "name": "value",
          "type": "uint256"
        }
      ],
      "name": "Approval",
      "type": "event"
    },
    {
      "anonymous": false,
      "inputs": [
        {
          "indexed": true,
          "internalType": "address",
          "name": "previousOwner",
          "type": "address"
        },
        {
          "indexed": true,
          "internalType": "address",
          "name": "newOwner",
          "type": "address"
        }
      ],
      "name": "OwnershipTransferred",
      "type": "event"
    },
    {
      "anonymous": false,
      "inputs": [
        {
          "indexed": true,
          "internalType": "address",
          "name": "from",
          "type": "address"
        },
        {
          "indexed": true,
          "internalType": "address",
          "name": "to",
          "type": "address"
        },
        {
          "indexed": false,
          "internalType": "uint256",
          "name": "value",
          "type": "uint256"
        }
      ],
      "name": "Transfer",
      "type": "event"
    },
    {
      "anonymous": false,
      "inputs": [
        {
          "indexed": true,
          "internalType": "uint256",
          "name": "nftID",
          "type": "uint256"
        },
        {
          "indexed": false,
          "internalType": "bytes32",
          "name": "digest",
          "type": "bytes32"
        },
        {
          "indexed": false,
          "internalType": "uint8",
          "name": "hashFunction",
          "type": "uint8"
        },
        {
          "indexed": false,
          "internalType": "uint8",
          "name": "size",
          "type": "uint8"
        }
      ],
      "name": "ipfsHashSetToNFT",
      "type": "event"
    },
    {
      "inputs": [
        {
          "internalType": "address",
          "name": "owner",
          "type": "address"
        },
        {
          "internalType": "address",
          "name": "spender",
          "type": "address"
        }
      ],
      "name": "allowance",
      "outputs": [
        {
          "internalType": "uint256",
          "name": "",
          "type": "uint256"
        }
      ],
      "stateMutability": "view",
      "type": "function",
      "constant": true
    },
    {
      "inputs": [
        {
          "internalType": "address",
          "name": "spender",
          "type": "address"
        },
        {
          "internalType": "uint256",
          "name": "amount",
          "type": "uint256"
        }
      ],
      "name": "approve",
      "outputs": [
        {
          "internalType": "bool",
          "name": "",
          "type": "bool"
        }
      ],
      "stateMutability": "nonpayable",
      "type": "function"
    },
    {
      "inputs": [
        {
          "internalType": "address",
          "name": "account",
          "type": "address"
        }
      ],
      "name": "balanceOf",
      "outputs": [
        {
          "internalType": "uint256",
          "name": "",
          "type": "uint256"
        }
      ],
      "stateMutability": "view",
      "type": "function",
      "constant": true
    },
    {
      "inputs": [],
      "name": "decimals",
      "outputs": [
        {
          "internalType": "uint8",
          "name": "",
          "type": "uint8"
        }
      ],
      "stateMutability": "view",
      "type": "function",
      "constant": true
    },
    {
      "inputs": [
        {
          "internalType": "address",
          "name": "spender",
          "type": "address"
        },
        {
          "internalType": "uint256",
          "name": "subtractedValue",
          "type": "uint256"
        }
      ],
      "name": "decreaseAllowance",
      "outputs": [
        {
          "internalType": "bool",
          "name": "",
          "type": "bool"
        }
      ],
      "stateMutability": "nonpayable",
      "type": "function"
    },
    {
      "inputs": [
        {
          "internalType": "address",
          "name": "spender",
          "type": "address"
        },
        {
          "internalType": "uint256",
          "name": "addedValue",
          "type": "uint256"
        }
      ],
      "name": "increaseAllowance",
      "outputs": [
        {
          "internalType": "bool",
          "name": "",
          "type": "bool"
        }
      ],
      "stateMutability": "nonpayable",
      "type": "function"
    },
    {
      "inputs": [],
      "name": "name",
      "outputs": [
        {
          "internalType": "string",
          "name": "",
          "type": "string"
        }
      ],
      "stateMutability": "view",
      "type": "function",
      "constant": true
    },
    {
      "inputs": [],
      "name": "owner",
      "outputs": [
        {
          "internalType": "address",
          "name": "",
          "type": "address"
        }
      ],
      "stateMutability": "view",
      "type": "function",
      "constant": true
    },
    {
      "inputs": [],
      "name": "renounceOwnership",
      "outputs": [],
      "stateMutability": "nonpayable",
      "type": "function"
    },
    {
      "inputs": [],
      "name": "symbol",
      "outputs": [
        {
          "internalType": "string",
          "name": "",
          "type": "string"
        }
      ],
      "stateMutability": "view",
      "type": "function",
      "constant": true
    },
    {
      "inputs": [],
      "name": "totalSupply",
      "outputs": [
        {
          "internalType": "uint256",
          "name": "",
          "type": "uint256"
        }
      ],
      "stateMutability": "view",
      "type": "function",
      "constant": true
    },
    {
      "inputs": [
        {
          "internalType": "address",
          "name": "recipient",
          "type": "address"
        },
        {
          "internalType": "uint256",
          "name": "amount",
          "type": "uint256"
        }
      ],
      "name": "transfer",
      "outputs": [
        {
          "internalType": "bool",
          "name": "",
          "type": "bool"
        }
      ],
      "stateMutability": "nonpayable",
      "type": "function"
    },
    {
      "inputs": [
        {
          "internalType": "address",
          "name": "sender",
          "type": "address"
        },
        {
          "internalType": "address",
          "name": "recipient",
          "type": "address"
        },
        {
          "internalType": "uint256",
          "name": "amount",
          "type": "uint256"
        }
      ],
      "name": "transferFrom",
      "outputs": [
        {
          "internalType": "bool",
          "name": "",
          "type": "bool"
        }
      ],
      "stateMutability": "nonpayable",
      "type": "function"
    },
    {
      "inputs": [
        {
          "internalType": "address",
          "name": "newOwner",
          "type": "address"
        }
      ],
      "name": "transferOwnership",
      "outputs": [],
      "stateMutability": "nonpayable",
      "type": "function"
    },
    {
      "inputs": [
        {
          "internalType": "uint256",
          "name": "_nftID",
          "type": "uint256"
        },
        {
          "internalType": "bytes32",
          "name": "_digest",
          "type": "bytes32"
        },
        {
          "internalType": "uint8",
          "name": "_hashFunction",
          "type": "uint8"
        },
        {
          "internalType": "uint8",
          "name": "_size",
          "type": "uint8"
        },
        {
          "internalType": "address[]",
          "name": "_rightsHolders",
          "type": "address[]"
        },
        {
          "internalType": "uint16[]",
          "name": "_rightsHolderTypes",
          "type": "uint16[]"
        },
        {
          "internalType": "uint256",
          "name": "_agreementID",
          "type": "uint256"
        }
      ],
      "name": "addIntelPropertyFile",
      "outputs": [],
      "stateMutability": "nonpayable",
      "type": "function"
    },
    {
      "inputs": [
        {
          "internalType": "uint256",
          "name": "_nftID",
          "type": "uint256"
        },
        {
          "internalType": "address",
          "name": "_rightsHolder",
          "type": "address"
        },
        {
          "internalType": "address",
          "name": "_to",
          "type": "address"
        },
        {
          "internalType": "uint256",
          "name": "_amount",
          "type": "uint256"
        }
      ],
      "name": "transferRightsHolderTokens",
      "outputs": [
        {
          "internalType": "bool",
          "name": "_retVal",
          "type": "bool"
        }
      ],
      "stateMutability": "nonpayable",
      "type": "function"
    },
    {
      "inputs": [
        {
          "internalType": "uint256",
          "name": "_nftID",
          "type": "uint256"
        }
      ],
      "name": "retrieveIntelPropertyFile",
      "outputs": [
        {
          "components": [
            {
              "internalType": "bytes32",
              "name": "digest",
              "type": "bytes32"
            },
            {
              "internalType": "uint8",
              "name": "hashFunction",
              "type": "uint8"
            },
            {
              "internalType": "uint8",
              "name": "size",
              "type": "uint8"
            }
          ],
          "internalType": "struct IntelPropertyTokens.Multihash",
          "name": "_intelPropFile",
          "type": "tuple"
        }
      ],
      "stateMutability": "view",
      "type": "function",
      "constant": true
    },
    {
      "inputs": [
        {
          "internalType": "uint256",
          "name": "_nftID",
          "type": "uint256"
        }
      ],
      "name": "retrieveRightsHolderInfo",
      "outputs": [
        {
          "components": [
            {
              "internalType": "uint256",
              "name": "agreementID",
              "type": "uint256"
            },
            {
              "internalType": "address",
              "name": "rightsHolderAddr",
              "type": "address"
            },
            {
              "internalType": "uint16",
              "name": "rightsHolderType",
              "type": "uint16"
            },
            {
              "internalType": "uint256",
              "name": "tokensHeld",
              "type": "uint256"
            }
          ],
          "internalType": "struct IntelPropertyTokens.RightsHolderSpec[]",
          "name": "_rightsHolder",
          "type": "tuple[]"
        }
      ],
      "stateMutability": "view",
      "type": "function",
      "constant": true
    },
    {
      "inputs": [],
      "name": "numberOfIntelPropertyFiles",
      "outputs": [
        {
          "internalType": "uint256",
          "name": "totalEntries",
          "type": "uint256"
        }
      ],
      "stateMutability": "view",
      "type": "function",
      "constant": true
    },
    {
      "inputs": [
        {
          "internalType": "uint256",
          "name": "_nftID",
          "type": "uint256"
        },
        {
          "internalType": "bool",
          "name": "_active",
          "type": "bool"
        }
      ],
      "name": "setActiveFlag",
      "outputs": [],
      "stateMutability": "nonpayable",
      "type": "function"
    },
    {
      "inputs": [
        {
          "internalType": "uint256",
          "name": "_nftID",
          "type": "uint256"
        }
      ],
      "name": "getActiveFlag",
      "outputs": [
        {
          "internalType": "bool",
          "name": "_active",
          "type": "bool"
        }
      ],
      "stateMutability": "view",
      "type": "function",
      "constant": true
    },
    {
      "inputs": [
        {
          "internalType": "uint256",
          "name": "_nftID",
          "type": "uint256"
        }
      ],
      "name": "setFinalizedFlag",
      "outputs": [],
      "stateMutability": "nonpayable",
      "type": "function"
    },
    {
      "inputs": [
        {
          "internalType": "uint256",
          "name": "_nftID",
          "type": "uint256"
        }
      ],
      "name": "getFinalizedFlag",
      "outputs": [
        {
          "internalType": "bool",
          "name": "_finalized",
          "type": "bool"
        }
      ],
      "stateMutability": "view",
      "type": "function",
      "constant": true
    }
  ],
  "bytecode": "0x60806040526103e86008553480156200001757600080fd5b506040518060400160405280601981526020017f496e74656c6c65637475616c50726f7065727479546f6b656e000000000000008152506040518060400160405280600381526020017f495054000000000000000000000000000000000000000000000000000000000081525081600390805190602001906200009c929190620001b8565b508060049080519060200190620000b5929190620001b8565b5050506000620000ca620001b060201b60201c565b905080600560006101000a81548173ffffffffffffffffffffffffffffffffffffffff021916908373ffffffffffffffffffffffffffffffffffffffff1602179055508073ffffffffffffffffffffffffffffffffffffffff16600073ffffffffffffffffffffffffffffffffffffffff167f8be0079c531659141344cd1fd0a4f28419497f9722a3daafe3b4186f6b6457e060405160405180910390a35033600960006101000a81548173ffffffffffffffffffffffffffffffffffffffff021916908373ffffffffffffffffffffffffffffffffffffffff160217905550620002cd565b600033905090565b828054620001c69062000268565b90600052602060002090601f016020900481019282620001ea576000855562000236565b82601f106200020557805160ff191683800117855562000236565b8280016001018555821562000236579182015b828111156200023557825182559160200191906001019062000218565b5b50905062000245919062000249565b5090565b5b80821115620002645760008160009055506001016200024a565b5090565b600060028204905060018216806200028157607f821691505b602082108114156200029857620002976200029e565b5b50919050565b7f4e487b7100000000000000000000000000000000000000000000000000000000600052602260045260246000fd5b612e9580620002dd6000396000f3fe608060405234801561001057600080fd5b506004361061014d5760003560e01c8063715018a6116100c3578063a9059cbb1161007c578063a9059cbb146103dc578063b42f71741461040c578063ca1f582c1461043c578063dd62ed3e14610458578063e7c7aae514610488578063f2fde38b146104a45761014d565b8063715018a61461032c5780638da5cb5b1461033657806392e90cd01461035457806395d89b411461037057806397050c401461038e578063a457c2d7146103ac5761014d565b806318160ddd1161011557806318160ddd1461023057806323b872dd1461024e578063313ce5671461027e578063395093511461029c57806356fec73f146102cc57806370a08231146102fc5761014d565b806306fdde0314610152578063070299e014610170578063095ea7b3146101a0578063109d1982146101d05780631292734914610200575b600080fd5b61015a6104c0565b604051610167919061287d565b60405180910390f35b61018a60048036038101906101859190611f52565b610552565b6040516101979190612809565b60405180910390f35b6101ba60048036038101906101b59190611eed565b610657565b6040516101c7919061282b565b60405180910390f35b6101ea60048036038101906101e59190611f52565b610675565b6040516101f79190612a5f565b60405180910390f35b61021a60048036038101906102159190611f7b565b6106ef565b604051610227919061282b565b60405180910390f35b610238610955565b6040516102459190612a7a565b60405180910390f35b61026860048036038101906102639190611e9e565b61095f565b604051610275919061282b565b60405180910390f35b610286610a60565b6040516102939190612a95565b60405180910390f35b6102b660048036038101906102b19190611eed565b610a69565b6040516102c3919061282b565b60405180910390f35b6102e660048036038101906102e19190611f52565b610b15565b6040516102f3919061282b565b60405180910390f35b61031660048036038101906103119190611e39565b610b47565b6040516103239190612a7a565b60405180910390f35b610334610b8f565b005b61033e610ccc565b60405161034b91906127ee565b60405180910390f35b61036e6004803603810190610369919061201a565b610cf6565b005b610378611096565b604051610385919061287d565b60405180910390f35b610396611128565b6040516103a39190612a7a565b60405180910390f35b6103c660048036038101906103c19190611eed565b611132565b6040516103d3919061282b565b60405180910390f35b6103f660048036038101906103f19190611eed565b611226565b604051610403919061282b565b60405180910390f35b61042660048036038101906104219190611f52565b611244565b604051610433919061282b565b60405180910390f35b61045660048036038101906104519190611f52565b611276565b005b610472600480360381019061046d9190611e62565b61132a565b60405161047f9190612a7a565b60405180910390f35b6104a2600480360381019061049d9190611fde565b6113b1565b005b6104be60048036038101906104b99190611e39565b611465565b005b6060600380546104cf90612c60565b80601f01602080910402602001604051908101604052809291908181526020018280546104fb90612c60565b80156105485780601f1061051d57610100808354040283529160200191610548565b820191906000526020600020905b81548152906001019060200180831161052b57829003601f168201915b5050505050905090565b6060600060066000848152602001908152602001600020905080600401805480602002602001604051908101604052809291908181526020016000905b8282101561064b5783829060005260206000209060030201604051806080016040529081600082015481526020016001820160009054906101000a900473ffffffffffffffffffffffffffffffffffffffff1673ffffffffffffffffffffffffffffffffffffffff1673ffffffffffffffffffffffffffffffffffffffff1681526020016001820160149054906101000a900461ffff1661ffff1661ffff1681526020016002820154815250508152602001906001019061058f565b50505050915050919050565b600061066b610664611611565b8484611619565b6001905092915050565b61067d611cfd565b600060066000848152602001908152602001600020905080600101604051806060016040529081600082015481526020016001820160009054906101000a900460ff1660ff1660ff1681526020016001820160019054906101000a900460ff1660ff1660ff1681525050915050919050565b60008060066000878152602001908152602001600020905060005b81600401805490508161ffff16101561094a576000826004018261ffff168154811061075f577f4e487b7100000000000000000000000000000000000000000000000000000000600052603260045260246000fd5b906000526020600020906003020190508673ffffffffffffffffffffffffffffffffffffffff168160010160009054906101000a900473ffffffffffffffffffffffffffffffffffffffff1673ffffffffffffffffffffffffffffffffffffffff161415610936578673ffffffffffffffffffffffffffffffffffffffff163373ffffffffffffffffffffffffffffffffffffffff16148061084e5750600960009054906101000a900473ffffffffffffffffffffffffffffffffffffffff1673ffffffffffffffffffffffffffffffffffffffff163373ffffffffffffffffffffffffffffffffffffffff16145b61088d576040517f08c379a00000000000000000000000000000000000000000000000000000000081526004016108849061295f565b60405180910390fd5b84816002015410156108d4576040517f08c379a00000000000000000000000000000000000000000000000000000000081526004016108cb906128bf565b60405180910390fd5b60006108e188888861095f565b9050600115158115151461092a576040517f08c379a00000000000000000000000000000000000000000000000000000000081526004016109219061299f565b60405180910390fd5b8094505050505061094d565b50808061094290612c92565b91505061070a565b50505b949350505050565b6000600254905090565b600061096c8484846117e4565b6000600160008673ffffffffffffffffffffffffffffffffffffffff1673ffffffffffffffffffffffffffffffffffffffff16815260200190815260200160002060006109b7611611565b73ffffffffffffffffffffffffffffffffffffffff1673ffffffffffffffffffffffffffffffffffffffff16815260200190815260200160002054905082811015610a37576040517f08c379a0000000000000000000000000000000000000000000000000000000008152600401610a2e9061297f565b60405180910390fd5b610a5485610a43611611565b8584610a4f9190612b8c565b611619565b60019150509392505050565b60006012905090565b6000610b0b610a76611611565b848460016000610a84611611565b73ffffffffffffffffffffffffffffffffffffffff1673ffffffffffffffffffffffffffffffffffffffff16815260200190815260200160002060008873ffffffffffffffffffffffffffffffffffffffff1673ffffffffffffffffffffffffffffffffffffffff16815260200190815260200160002054610b069190612b05565b611619565b6001905092915050565b6000806006600084815260200190815260200160002090508060030160019054906101000a900460ff16915050919050565b60008060008373ffffffffffffffffffffffffffffffffffffffff1673ffffffffffffffffffffffffffffffffffffffff168152602001908152602001600020549050919050565b610b97611611565b73ffffffffffffffffffffffffffffffffffffffff16610bb5610ccc565b73ffffffffffffffffffffffffffffffffffffffff1614610c0b576040517f08c379a0000000000000000000000000000000000000000000000000000000008152600401610c02906129bf565b60405180910390fd5b600073ffffffffffffffffffffffffffffffffffffffff16600560009054906101000a900473ffffffffffffffffffffffffffffffffffffffff1673ffffffffffffffffffffffffffffffffffffffff167f8be0079c531659141344cd1fd0a4f28419497f9722a3daafe3b4186f6b6457e060405160405180910390a36000600560006101000a81548173ffffffffffffffffffffffffffffffffffffffff021916908373ffffffffffffffffffffffffffffffffffffffff160217905550565b6000600560009054906101000a900473ffffffffffffffffffffffffffffffffffffffff16905090565b610cfe611611565b73ffffffffffffffffffffffffffffffffffffffff16610d1c610ccc565b73ffffffffffffffffffffffffffffffffffffffff1614610d72576040517f08c379a0000000000000000000000000000000000000000000000000000000008152600401610d69906129bf565b60405180910390fd5b828290508585905014610dba576040517f08c379a0000000000000000000000000000000000000000000000000000000008152600401610db19061293f565b60405180910390fd5b6000600660008b81526020019081526020016000209050600960009054906101000a900473ffffffffffffffffffffffffffffffffffffffff168160000160006101000a81548173ffffffffffffffffffffffffffffffffffffffff021916908373ffffffffffffffffffffffffffffffffffffffff1602179055506000816001019050898160000181905550888160010160006101000a81548160ff021916908360ff160217905550878160010160016101000a81548160ff021916908360ff1602179055508a7fc7061d9ef2bf5e27eae49fa823eef41bc416fc9df5b7d50b79e234943b93d0218b8b8b604051610eb593929190612846565b60405180910390a260005b8787905081101561106757600060405180608001604052808681526020018a8a85818110610f17577f4e487b7100000000000000000000000000000000000000000000000000000000600052603260045260246000fd5b9050602002016020810190610f2c9190611e39565b73ffffffffffffffffffffffffffffffffffffffff168152602001888885818110610f80577f4e487b7100000000000000000000000000000000000000000000000000000000600052603260045260246000fd5b9050602002016020810190610f959190611f29565b61ffff16815260200160008152509050836004018190806001815401808255809150506001900390600052602060002090600302016000909190919091506000820151816000015560208201518160010160006101000a81548173ffffffffffffffffffffffffffffffffffffffff021916908373ffffffffffffffffffffffffffffffffffffffff16021790555060408201518160010160146101000a81548161ffff021916908361ffff16021790555060608201518160020155505050808061105f90612cbd565b915050610ec0565b506007600081548092919061107b90612cbd565b91905055506110898b611a63565b5050505050505050505050565b6060600480546110a590612c60565b80601f01602080910402602001604051908101604052809291908181526020018280546110d190612c60565b801561111e5780601f106110f35761010080835404028352916020019161111e565b820191906000526020600020905b81548152906001019060200180831161110157829003601f168201915b5050505050905090565b6000600754905090565b60008060016000611141611611565b73ffffffffffffffffffffffffffffffffffffffff1673ffffffffffffffffffffffffffffffffffffffff16815260200190815260200160002060008573ffffffffffffffffffffffffffffffffffffffff1673ffffffffffffffffffffffffffffffffffffffff168152602001908152602001600020549050828110156111fe576040517f08c379a00000000000000000000000000000000000000000000000000000000081526004016111f590612a1f565b60405180910390fd5b61121b611209611611565b8585846112169190612b8c565b611619565b600191505092915050565b600061123a611233611611565b84846117e4565b6001905092915050565b6000806006600084815260200190815260200160002090508060030160009054906101000a900460ff16915050919050565b61127e611611565b73ffffffffffffffffffffffffffffffffffffffff1661129c610ccc565b73ffffffffffffffffffffffffffffffffffffffff16146112f2576040517f08c379a00000000000000000000000000000000000000000000000000000000081526004016112e9906129bf565b60405180910390fd5b600060066000838152602001908152602001600020905060018160030160016101000a81548160ff0219169083151502179055505050565b6000600160008473ffffffffffffffffffffffffffffffffffffffff1673ffffffffffffffffffffffffffffffffffffffff16815260200190815260200160002060008373ffffffffffffffffffffffffffffffffffffffff1673ffffffffffffffffffffffffffffffffffffffff16815260200190815260200160002054905092915050565b6113b9611611565b73ffffffffffffffffffffffffffffffffffffffff166113d7610ccc565b73ffffffffffffffffffffffffffffffffffffffff161461142d576040517f08c379a0000000000000000000000000000000000000000000000000000000008152600401611424906129bf565b60405180910390fd5b6000600660008481526020019081526020016000209050818160030160006101000a81548160ff021916908315150217905550505050565b61146d611611565b73ffffffffffffffffffffffffffffffffffffffff1661148b610ccc565b73ffffffffffffffffffffffffffffffffffffffff16146114e1576040517f08c379a00000000000000000000000000000000000000000000000000000000081526004016114d8906129bf565b60405180910390fd5b600073ffffffffffffffffffffffffffffffffffffffff168173ffffffffffffffffffffffffffffffffffffffff161415611551576040517f08c379a0000000000000000000000000000000000000000000000000000000008152600401611548906128df565b60405180910390fd5b8073ffffffffffffffffffffffffffffffffffffffff16600560009054906101000a900473ffffffffffffffffffffffffffffffffffffffff1673ffffffffffffffffffffffffffffffffffffffff167f8be0079c531659141344cd1fd0a4f28419497f9722a3daafe3b4186f6b6457e060405160405180910390a380600560006101000a81548173ffffffffffffffffffffffffffffffffffffffff021916908373ffffffffffffffffffffffffffffffffffffffff16021790555050565b600033905090565b600073ffffffffffffffffffffffffffffffffffffffff168373ffffffffffffffffffffffffffffffffffffffff161415611689576040517f08c379a0000000000000000000000000000000000000000000000000000000008152600401611680906129ff565b60405180910390fd5b600073ffffffffffffffffffffffffffffffffffffffff168273ffffffffffffffffffffffffffffffffffffffff1614156116f9576040517f08c379a00000000000000000000000000000000000000000000000000000000081526004016116f0906128ff565b60405180910390fd5b80600160008573ffffffffffffffffffffffffffffffffffffffff1673ffffffffffffffffffffffffffffffffffffffff16815260200190815260200160002060008473ffffffffffffffffffffffffffffffffffffffff1673ffffffffffffffffffffffffffffffffffffffff168152602001908152602001600020819055508173ffffffffffffffffffffffffffffffffffffffff168373ffffffffffffffffffffffffffffffffffffffff167f8c5be1e5ebec7d5bd14f71427d1e84f3dd0314c0f7b2291e5b200ac8c7c3b925836040516117d79190612a7a565b60405180910390a3505050565b600073ffffffffffffffffffffffffffffffffffffffff168373ffffffffffffffffffffffffffffffffffffffff161415611854576040517f08c379a000000000000000000000000000000000000000000000000000000000815260040161184b906129df565b60405180910390fd5b600073ffffffffffffffffffffffffffffffffffffffff168273ffffffffffffffffffffffffffffffffffffffff1614156118c4576040517f08c379a00000000000000000000000000000000000000000000000000000000081526004016118bb9061289f565b60405180910390fd5b6118cf838383611ba4565b60008060008573ffffffffffffffffffffffffffffffffffffffff1673ffffffffffffffffffffffffffffffffffffffff16815260200190815260200160002054905081811015611955576040517f08c379a000000000000000000000000000000000000000000000000000000000815260040161194c9061291f565b60405180910390fd5b81816119619190612b8c565b6000808673ffffffffffffffffffffffffffffffffffffffff1673ffffffffffffffffffffffffffffffffffffffff16815260200190815260200160002081905550816000808573ffffffffffffffffffffffffffffffffffffffff1673ffffffffffffffffffffffffffffffffffffffff16815260200190815260200160002060008282546119f19190612b05565b925050819055508273ffffffffffffffffffffffffffffffffffffffff168473ffffffffffffffffffffffffffffffffffffffff167fddf252ad1be2c89b69c2b068fc378daa952ba7f163c4a11628f55a4df523b3ef84604051611a559190612a7a565b60405180910390a350505050565b600060066000838152602001908152602001600020905060008160040180549050600854611a919190612d06565b905060008260040180549050600854611aaa9190612b5b565b905060005b83600401805490508161ffff161015611b9d576000808261ffff16148015611ad75750600084115b611ae15782611aee565b8383611aed9190612b05565b5b90506000856004018361ffff1681548110611b32577f4e487b7100000000000000000000000000000000000000000000000000000000600052603260045260246000fd5b90600052602060002090600302019050818160020154611b529190612b05565b8160020181905550611b888160010160009054906101000a900473ffffffffffffffffffffffffffffffffffffffff1683611ba9565b50508080611b9590612c92565b915050611aaf565b5050505050565b505050565b600073ffffffffffffffffffffffffffffffffffffffff168273ffffffffffffffffffffffffffffffffffffffff161415611c19576040517f08c379a0000000000000000000000000000000000000000000000000000000008152600401611c1090612a3f565b60405180910390fd5b611c2560008383611ba4565b8060026000828254611c379190612b05565b92505081905550806000808473ffffffffffffffffffffffffffffffffffffffff1673ffffffffffffffffffffffffffffffffffffffff1681526020019081526020016000206000828254611c8c9190612b05565b925050819055508173ffffffffffffffffffffffffffffffffffffffff16600073ffffffffffffffffffffffffffffffffffffffff167fddf252ad1be2c89b69c2b068fc378daa952ba7f163c4a11628f55a4df523b3ef83604051611cf19190612a7a565b60405180910390a35050565b604051806060016040528060008019168152602001600060ff168152602001600060ff1681525090565b600081359050611d3681612dd5565b92915050565b60008083601f840112611d4e57600080fd5b8235905067ffffffffffffffff811115611d6757600080fd5b602083019150836020820283011115611d7f57600080fd5b9250929050565b60008083601f840112611d9857600080fd5b8235905067ffffffffffffffff811115611db157600080fd5b602083019150836020820283011115611dc957600080fd5b9250929050565b600081359050611ddf81612dec565b92915050565b600081359050611df481612e03565b92915050565b600081359050611e0981612e1a565b92915050565b600081359050611e1e81612e31565b92915050565b600081359050611e3381612e48565b92915050565b600060208284031215611e4b57600080fd5b6000611e5984828501611d27565b91505092915050565b60008060408385031215611e7557600080fd5b6000611e8385828601611d27565b9250506020611e9485828601611d27565b9150509250929050565b600080600060608486031215611eb357600080fd5b6000611ec186828701611d27565b9350506020611ed286828701611d27565b9250506040611ee386828701611e0f565b9150509250925092565b60008060408385031215611f0057600080fd5b6000611f0e85828601611d27565b9250506020611f1f85828601611e0f565b9150509250929050565b600060208284031215611f3b57600080fd5b6000611f4984828501611dfa565b91505092915050565b600060208284031215611f6457600080fd5b6000611f7284828501611e0f565b91505092915050565b60008060008060808587031215611f9157600080fd5b6000611f9f87828801611e0f565b9450506020611fb087828801611d27565b9350506040611fc187828801611d27565b9250506060611fd287828801611e0f565b91505092959194509250565b60008060408385031215611ff157600080fd5b6000611fff85828601611e0f565b925050602061201085828601611dd0565b9150509250929050565b600080600080600080600080600060e08a8c03121561203857600080fd5b60006120468c828d01611e0f565b99505060206120578c828d01611de5565b98505060406120688c828d01611e24565b97505060606120798c828d01611e24565b96505060808a013567ffffffffffffffff81111561209657600080fd5b6120a28c828d01611d3c565b955095505060a08a013567ffffffffffffffff8111156120c157600080fd5b6120cd8c828d01611d86565b935093505060c06120e08c828d01611e0f565b9150509295985092959850929598565b60006120fc838361274e565b60808301905092915050565b61211181612bc0565b82525050565b61212081612bc0565b82525050565b600061213182612ac0565b61213b8185612ae3565b935061214683612ab0565b8060005b8381101561217757815161215e88826120f0565b975061216983612ad6565b92505060018101905061214a565b5085935050505092915050565b61218d81612bd2565b82525050565b61219c81612bde565b82525050565b6121ab81612bde565b82525050565b60006121bc82612acb565b6121c68185612af4565b93506121d6818560208601612c2d565b6121df81612dc4565b840191505092915050565b60006121f7602383612af4565b91507f45524332303a207472616e7366657220746f20746865207a65726f206164647260008301527f65737300000000000000000000000000000000000000000000000000000000006020830152604082019050919050565b600061225d602983612af4565b91507f526967687473486f6c64657220646f6573206e6f74206861766520656e6f756760008301527f6820746f6b656e732e00000000000000000000000000000000000000000000006020830152604082019050919050565b60006122c3602683612af4565b91507f4f776e61626c653a206e6577206f776e657220697320746865207a65726f206160008301527f64647265737300000000000000000000000000000000000000000000000000006020830152604082019050919050565b6000612329602283612af4565b91507f45524332303a20617070726f766520746f20746865207a65726f20616464726560008301527f73730000000000000000000000000000000000000000000000000000000000006020830152604082019050919050565b600061238f602683612af4565b91507f45524332303a207472616e7366657220616d6f756e742065786365656473206260008301527f616c616e636500000000000000000000000000000000000000000000000000006020830152604082019050919050565b60006123f5604c83612af4565b91507f6c656e677468206f6620726967687473486f6c64657273206d757374206d617460008301527f636820746865206c656e677468206f6620726967687473486f6c64657254797060208301527f6573207375626d697474656400000000000000000000000000000000000000006040830152606082019050919050565b6000612481601d83612af4565b91507f6d73672e73656e646572206973206e6f7420617574686f72697a65642e0000006000830152602082019050919050565b60006124c1602883612af4565b91507f45524332303a207472616e7366657220616d6f756e742065786365656473206160008301527f6c6c6f77616e63650000000000000000000000000000000000000000000000006020830152604082019050919050565b6000612527601283612af4565b91507f756e61626c6520746f207472616e7366657200000000000000000000000000006000830152602082019050919050565b6000612567602083612af4565b91507f4f776e61626c653a2063616c6c6572206973206e6f7420746865206f776e65726000830152602082019050919050565b60006125a7602583612af4565b91507f45524332303a207472616e736665722066726f6d20746865207a65726f20616460008301527f64726573730000000000000000000000000000000000000000000000000000006020830152604082019050919050565b600061260d602483612af4565b91507f45524332303a20617070726f76652066726f6d20746865207a65726f2061646460008301527f72657373000000000000000000000000000000000000000000000000000000006020830152604082019050919050565b6000612673602583612af4565b91507f45524332303a2064656372656173656420616c6c6f77616e63652062656c6f7760008301527f207a65726f0000000000000000000000000000000000000000000000000000006020830152604082019050919050565b60006126d9601f83612af4565b91507f45524332303a206d696e7420746f20746865207a65726f2061646472657373006000830152602082019050919050565b6060820160008201516127226000850182612193565b50602082015161273560208501826127d0565b50604082015161274860408501826127d0565b50505050565b60808201600082015161276460008501826127b2565b5060208201516127776020850182612108565b50604082015161278a60408501826127a3565b50606082015161279d60608501826127b2565b50505050565b6127ac81612be8565b82525050565b6127bb81612c16565b82525050565b6127ca81612c16565b82525050565b6127d981612c20565b82525050565b6127e881612c20565b82525050565b60006020820190506128036000830184612117565b92915050565b600060208201905081810360008301526128238184612126565b905092915050565b60006020820190506128406000830184612184565b92915050565b600060608201905061285b60008301866121a2565b61286860208301856127df565b61287560408301846127df565b949350505050565b6000602082019050818103600083015261289781846121b1565b905092915050565b600060208201905081810360008301526128b8816121ea565b9050919050565b600060208201905081810360008301526128d881612250565b9050919050565b600060208201905081810360008301526128f8816122b6565b9050919050565b600060208201905081810360008301526129188161231c565b9050919050565b6000602082019050818103600083015261293881612382565b9050919050565b60006020820190508181036000830152612958816123e8565b9050919050565b6000602082019050818103600083015261297881612474565b9050919050565b60006020820190508181036000830152612998816124b4565b9050919050565b600060208201905081810360008301526129b88161251a565b9050919050565b600060208201905081810360008301526129d88161255a565b9050919050565b600060208201905081810360008301526129f88161259a565b9050919050565b60006020820190508181036000830152612a1881612600565b9050919050565b60006020820190508181036000830152612a3881612666565b9050919050565b60006020820190508181036000830152612a58816126cc565b9050919050565b6000606082019050612a74600083018461270c565b92915050565b6000602082019050612a8f60008301846127c1565b92915050565b6000602082019050612aaa60008301846127df565b92915050565b6000819050602082019050919050565b600081519050919050565b600081519050919050565b6000602082019050919050565b600082825260208201905092915050565b600082825260208201905092915050565b6000612b1082612c16565b9150612b1b83612c16565b9250827fffffffffffffffffffffffffffffffffffffffffffffffffffffffffffffffff03821115612b5057612b4f612d37565b5b828201905092915050565b6000612b6682612c16565b9150612b7183612c16565b925082612b8157612b80612d66565b5b828204905092915050565b6000612b9782612c16565b9150612ba283612c16565b925082821015612bb557612bb4612d37565b5b828203905092915050565b6000612bcb82612bf6565b9050919050565b60008115159050919050565b6000819050919050565b600061ffff82169050919050565b600073ffffffffffffffffffffffffffffffffffffffff82169050919050565b6000819050919050565b600060ff82169050919050565b60005b83811015612c4b578082015181840152602081019050612c30565b83811115612c5a576000848401525b50505050565b60006002820490506001821680612c7857607f821691505b60208210811415612c8c57612c8b612d95565b5b50919050565b6000612c9d82612be8565b915061ffff821415612cb257612cb1612d37565b5b600182019050919050565b6000612cc882612c16565b91507fffffffffffffffffffffffffffffffffffffffffffffffffffffffffffffffff821415612cfb57612cfa612d37565b5b600182019050919050565b6000612d1182612c16565b9150612d1c83612c16565b925082612d2c57612d2b612d66565b5b828206905092915050565b7f4e487b7100000000000000000000000000000000000000000000000000000000600052601160045260246000fd5b7f4e487b7100000000000000000000000000000000000000000000000000000000600052601260045260246000fd5b7f4e487b7100000000000000000000000000000000000000000000000000000000600052602260045260246000fd5b6000601f19601f8301169050919050565b612dde81612bc0565b8114612de957600080fd5b50565b612df581612bd2565b8114612e0057600080fd5b50565b612e0c81612bde565b8114612e1757600080fd5b50565b612e2381612be8565b8114612e2e57600080fd5b50565b612e3a81612c16565b8114612e4557600080fd5b50565b612e5181612c20565b8114612e5c57600080fd5b5056fea2646970667358221220c189c46a879ae6cd3a69202bbd238c9f7e985904f1ef0cd4a9afbaf73181b84f64736f6c63430008000033",
  "immutableReferences": {},
  "source": "// SPDX-License-Identifier: MIT\r\npragma solidity 0.8.0;\r\npragma experimental ABIEncoderV2;\r\n\r\nimport \"@openzeppelin/contracts/token/ERC20/ERC20.sol\";\r\nimport \"@openzeppelin/contracts/access/Ownable.sol\";\r\n\r\n/** @title IntelPropertyTokens.sol is an ERC20 token smart contract handling Intellectual Property. \r\n  * @author Chris Ball\r\n  * @notice This contract is an ERC20 token that works in conjuction with the IntelPropertyNFT (ERC721) contract. \r\n  * This contract tracks the IPFS hash address of the intellectual property (for instance, an art or music file) \r\n  * and the rightsHolder information for each piece (represented by the nftID issued by the IntelPropertyNFT contract). \r\n  * Tokens are minted in batches of 1000 (see intelPropertyTokenLimit) and issued to the rightsHolders of the \r\n  * NFT/Intellectual Property file. Each batch belongs to one NFT and the rightsHolders who own the rights to it.\r\n*/\r\ncontract IntelPropertyTokens is ERC20, Ownable {\r\n\tmapping (uint => IntelPropertyFile) intelPropertyFile; /** @dev nftIndex => intelPropertyFile (nftIndex => Mulithash is covered by this mapping)  */\r\n\tuint totalIntelPropertyFiles; /** @dev total of all IntelProperty files in the contract */\r\n\tuint intelPropertyTokenLimit = 1000; /** @dev should probably be 1000 (or 10000) x # of rightsHolderTypes. Using 1000 for this example. */\r\n    address admin; /** @dev the idea of 'admin' will need to be expanded to become an admin for the IntelPropertyFile: whoever uploads ia the admin for that _nftID */\r\n    \r\n   \tconstructor() ERC20(\"IntellectualPropertyToken\", \"IPT\") { \r\n\t\tadmin = msg.sender;\r\n\t}\r\n    \r\n    \tstruct IntelPropertyFile {\r\n\t\taddress admin;\r\n        Multihash ipfsHash;\r\n\t\tbool active;\r\n\t\tbool finalized;\r\n\t\tRightsHolderSpec[] rightsHolderSpecs; \r\n\t}\t\r\n\tstruct RightsHolderSpec {\r\n\t\tuint agreementID;\r\n\t\taddress rightsHolderAddr; /* this functions as the original rightsHolder account, regardless of who owns the token */ \r\n\t\tuint16 rightsHolderType; /* see IntelPropertyToken.test.js - for example: ARTIST=0, WRITER=1, PUBLISHER=2, MASTERRIGHTSHOLDER=3 */ \r\n\t\tuint tokensHeld; /* this possibly won't reflect secondary market sales buy-backs - need to research */ \r\n\t}\t\r\n\tstruct Multihash {\r\n\t\tbytes32 digest;\r\n\t\tuint8 hashFunction;\r\n\t\tuint8 size;\r\n  \t}\r\n    \r\n\tevent ipfsHashSetToNFT (uint indexed nftID, bytes32 digest, uint8 hashFunction, uint8 size);\r\n\r\n\t/** @notice method adds the IPFS hash address & rightsHolder info to the contract specific to the incoming _nftID (see IntelPropertyNFT.sol for more info) */\r\n\tfunction addIntelPropertyFile(uint _nftID, bytes32 _digest, uint8 _hashFunction, uint8 _size, address[] calldata _rightsHolders, uint16[] calldata _rightsHolderTypes, uint _agreementID) external onlyOwner {\r\n\t\t/** @dev requirement of onlyOwner is temp - in production, anyone who uploads will become an admin for that intelPropertyFile */\t\t\r\n\t\trequire(_rightsHolders.length == _rightsHolderTypes.length, 'length of rightsHolders must match the length of rightsHolderTypes submitted');\r\n\t\t\r\n\t\t/** @dev\r\n\t\t  * IMP: there is nothing to keep the same file from being tracked as an NFT multiple times. This could cause \r\n\t\t  * issues, but may resolve itself in that everything is onchain and transparent in the case of a nefarious actor. \r\n\t\t  * Further, plays/views of a file that exists as more than 1 NFT will simply be split between the NFTs in the case\r\n\t\t  * of an honest, mistaken re-upload. \r\n\t\t*/\r\n\r\n\t\t/** @dev using the incoming _nftID is needed for the various contracts to coordinate */\r\n\t\t(IntelPropertyFile storage sdFile) = (intelPropertyFile[_nftID]);\r\n\t\tsdFile.admin = admin;\t\t\r\n\t\t\r\n\t\t(Multihash storage entry) = (sdFile.ipfsHash);\r\n\t\tentry.digest = _digest;\r\n\t\tentry.hashFunction = _hashFunction;\r\n\t\tentry.size = _size;\r\n\t\temit ipfsHashSetToNFT(_nftID, _digest, _hashFunction, _size);\t\t\r\n\t\t\r\n\t\tfor (uint i = 0; i < _rightsHolders.length; i++) {\r\n\t\t\t/** @dev RightsHolderSpec(address, rightsHolderType, tokensHeld) */\r\n\t\t\t(RightsHolderSpec memory rhSpec) = (RightsHolderSpec(_agreementID, _rightsHolders[i], _rightsHolderTypes[i], 0));\r\n\t\t\tsdFile.rightsHolderSpecs.push(rhSpec);\r\n\t\t}\r\n\t\ttotalIntelPropertyFiles++; \r\n\t\tmintTokensForIntelPropertyFile(_nftID);\r\n\t}\r\n\t\r\n\t/** @notice handles minting of the tokens specific to the IntelProperty file's ID supplied. \r\n\t  * 'intelPropertyTokenLimit' determines the # of tokens and this is divided by the # \r\n\t  * of rightsHolders assigned to the IntelProperty file. Any remainder (beyond the evenly\r\n\t  * split # of tokens between rightsHolders) tokens will be assigned to the first \r\n\t  * rightsHolder account in the list. Example: 1000 tokens / 3 = 334, 333, 333\r\n\t*/\r\n\tfunction mintTokensForIntelPropertyFile(uint _nftID) internal {\t\t\r\n\t\t(IntelPropertyFile storage sdFile) = (intelPropertyFile[_nftID]);\r\n\t\t/** @dev we need to account for decimals when dividing tokens between rightsHolders. \r\n\t\t  * IMPORTANT: the first rightsHolder listed will receive the extra tokens after division */\r\n\t\t(uint modu) = (intelPropertyTokenLimit % sdFile.rightsHolderSpecs.length);\r\n\t\t(uint numTokens) = (intelPropertyTokenLimit / sdFile.rightsHolderSpecs.length);\r\n\t\tfor (uint16 i = 0; i < sdFile.rightsHolderSpecs.length; i++) {\r\n\t\t\tuint amount = (i == 0 && modu > 0) ? numTokens + modu : numTokens;\r\n\t\t\t(RightsHolderSpec storage rhSpec) = (sdFile.rightsHolderSpecs[i]);\r\n\t\t\trhSpec.tokensHeld = rhSpec.tokensHeld + amount;\r\n\t\t\t_mint(rhSpec.rightsHolderAddr, amount);\r\n\t\t}\r\n\t}\r\n\t\r\n\t/** @notice controls the transfer of rightsHolder's tokens specific to the IntelProperty file ID supplied  */\r\n\tfunction transferRightsHolderTokens(uint _nftID, address _rightsHolder, address _to, uint _amount) public returns (bool _retVal) {\r\n\t\t/** @dev since solidity 0.7.0, you can't create a mapping inside of a struct, therefore we need to iterate\r\n\t\t  * thru the rightsHolders, but there aren't many \r\n\t\t*/\r\n\t\t(IntelPropertyFile storage sdFile) = (intelPropertyFile[_nftID]);\r\n\t\tfor (uint16 i = 0; i < sdFile.rightsHolderSpecs.length; i++) {\r\n\t\t\t(RightsHolderSpec storage rhSpec) = (sdFile.rightsHolderSpecs[i]);\r\n\t\t\tif (rhSpec.rightsHolderAddr == _rightsHolder) {\r\n\t\t\t\trequire(msg.sender == _rightsHolder || msg.sender == admin, \"msg.sender is not authorized.\");\r\n\t\t\t\trequire(rhSpec.tokensHeld >= _amount, \"RightsHolder does not have enough tokens.\");\r\n\t\t\t\tbool retVal = transferFrom(_rightsHolder, _to, _amount);\r\n\t\t\t\trequire(retVal == true, 'unable to transfer');\r\n\t\t\t\treturn retVal;\r\n\t\t\t}\r\n\t\t}\t\t\r\n\t}\r\n\r\n\t/** @notice returns the IPFS multihash address for the IntelProperty file's content */\r\n\tfunction retrieveIntelPropertyFile(uint _nftID) public view returns(Multihash memory _intelPropFile) {\r\n\t\t(IntelPropertyFile storage sdFile) = (intelPropertyFile[_nftID]);\r\n\t\treturn sdFile.ipfsHash;\r\n\t}\r\n\t\r\n\t/** @notice returns the rightsHolder information for the IntelProperty file requested */\r\n\tfunction retrieveRightsHolderInfo(uint _nftID) external view returns(RightsHolderSpec[] memory _rightsHolder) {\r\n\t\t(IntelPropertyFile storage sdFile) = (intelPropertyFile[_nftID]);\r\n\t\treturn sdFile.rightsHolderSpecs;\r\n\t}\r\n\r\n\t/** @notice returns total number of IntelProperty files in the contract */\r\n\tfunction numberOfIntelPropertyFiles() public view returns(uint totalEntries) {\r\n\t\treturn totalIntelPropertyFiles;\r\n\t}\r\n\r\n\t/** @notice sets the IntelProperty file's active flag, used for controling visibility of the contents */\r\n\tfunction setActiveFlag(uint _nftID, bool _active) external onlyOwner {\r\n\t\t(IntelPropertyFile storage sdFile) = (intelPropertyFile[_nftID]);\r\n\t\tsdFile.active = _active;\r\n\t}\r\n\t/** @notice retrieves the IntelProperty file's active flag, used for controlling visibility of the contents */\r\n\tfunction getActiveFlag(uint _nftID) external view returns(bool _active) {\r\n\t\t(IntelPropertyFile storage sdFile) = (intelPropertyFile[_nftID]);\r\n\t\treturn sdFile.active;\r\n\t}\r\n\r\n\t/** @notice sets the IntelProperty file's status to Finalized, limiting what can be changed \r\n\t  * @dev this may turn out to not be needed but is being left here for now\r\n\t*/\r\n\tfunction setFinalizedFlag(uint _nftID) external onlyOwner {\r\n\t\t(IntelPropertyFile storage sdFile) = (intelPropertyFile[_nftID]);\r\n\t\tsdFile.finalized = true;\r\n\t}\r\n\t/** @notice returns Finalized status for this IntelProperty file */\r\n\tfunction getFinalizedFlag(uint _nftID) external view returns(bool _finalized) {\r\n\t\t(IntelPropertyFile storage sdFile) = (intelPropertyFile[_nftID]);\r\n\t\treturn sdFile.finalized;\r\n\t}\r\n}\r\n",
  "sourcePath": "C:/devroot/Solidity/learning/IntellectualPropertyToken/contracts/IntelPropertyTokens.sol",
  "compiler": {
    "name": "solc",
    "version": "0.8.0+commit.c7dfd78e.Emscripten.clang"
  },
  "schemaVersion": "3.3.4",
  "updatedAt": "2021-06-16T13:31:48.653Z",
  "networkType": "ethereum",
  "devdoc": {
    "author": "Chris Ball",
    "kind": "dev",
    "methods": {
      "allowance(address,address)": {
        "details": "See {IERC20-allowance}."
      },
      "approve(address,uint256)": {
        "details": "See {IERC20-approve}. Requirements: - `spender` cannot be the zero address."
      },
      "balanceOf(address)": {
        "details": "See {IERC20-balanceOf}."
      },
      "constructor": {
        "details": "the idea of 'admin' will need to be expanded to become an admin for the IntelPropertyFile: whoever uploads ia the admin for that _nftID "
      },
      "decimals()": {
        "details": "Returns the number of decimals used to get its user representation. For example, if `decimals` equals `2`, a balance of `505` tokens should be displayed to a user as `5,05` (`505 / 10 ** 2`). Tokens usually opt for a value of 18, imitating the relationship between Ether and Wei. This is the value {ERC20} uses, unless this function is overridden; NOTE: This information is only used for _display_ purposes: it in no way affects any of the arithmetic of the contract, including {IERC20-balanceOf} and {IERC20-transfer}."
      },
      "decreaseAllowance(address,uint256)": {
        "details": "Atomically decreases the allowance granted to `spender` by the caller. This is an alternative to {approve} that can be used as a mitigation for problems described in {IERC20-approve}. Emits an {Approval} event indicating the updated allowance. Requirements: - `spender` cannot be the zero address. - `spender` must have allowance for the caller of at least `subtractedValue`."
      },
      "increaseAllowance(address,uint256)": {
        "details": "Atomically increases the allowance granted to `spender` by the caller. This is an alternative to {approve} that can be used as a mitigation for problems described in {IERC20-approve}. Emits an {Approval} event indicating the updated allowance. Requirements: - `spender` cannot be the zero address."
      },
      "name()": {
        "details": "Returns the name of the token."
      },
      "owner()": {
        "details": "Returns the address of the current owner."
      },
      "renounceOwnership()": {
        "details": "Leaves the contract without owner. It will not be possible to call `onlyOwner` functions anymore. Can only be called by the current owner. NOTE: Renouncing ownership will leave the contract without an owner, thereby removing any functionality that is only available to the owner."
      },
      "setFinalizedFlag(uint256)": {
        "details": "this may turn out to not be needed but is being left here for now"
      },
      "symbol()": {
        "details": "Returns the symbol of the token, usually a shorter version of the name."
      },
      "totalSupply()": {
        "details": "See {IERC20-totalSupply}."
      },
      "transfer(address,uint256)": {
        "details": "See {IERC20-transfer}. Requirements: - `recipient` cannot be the zero address. - the caller must have a balance of at least `amount`."
      },
      "transferFrom(address,address,uint256)": {
        "details": "See {IERC20-transferFrom}. Emits an {Approval} event indicating the updated allowance. This is not required by the EIP. See the note at the beginning of {ERC20}. Requirements: - `sender` and `recipient` cannot be the zero address. - `sender` must have a balance of at least `amount`. - the caller must have allowance for ``sender``'s tokens of at least `amount`."
      },
      "transferOwnership(address)": {
        "details": "Transfers ownership of the contract to a new account (`newOwner`). Can only be called by the current owner."
      }
    },
    "stateVariables": {
      "admin": {
        "details": "should probably be 1000 (or 10000) x # of rightsHolderTypes. Using 1000 for this example. "
      },
      "intelPropertyTokenLimit": {
        "details": "total of all IntelProperty files in the contract "
      },
      "totalIntelPropertyFiles": {
        "details": "nftIndex => intelPropertyFile (nftIndex => Mulithash is covered by this mapping)  "
      }
    },
    "title": "IntelPropertyTokens.sol is an ERC20 token smart contract handling Intellectual Property. ",
    "version": 1
  },
  "userdoc": {
    "kind": "user",
    "methods": {
      "addIntelPropertyFile(uint256,bytes32,uint8,uint8,address[],uint16[],uint256)": {
        "notice": "method adds the IPFS hash address & rightsHolder info to the contract specific to the incoming _nftID (see IntelPropertyNFT.sol for more info) "
      },
      "getActiveFlag(uint256)": {
        "notice": "retrieves the IntelProperty file's active flag, used for controlling visibility of the contents "
      },
      "getFinalizedFlag(uint256)": {
        "notice": "returns Finalized status for this IntelProperty file "
      },
      "numberOfIntelPropertyFiles()": {
        "notice": "returns total number of IntelProperty files in the contract "
      },
      "retrieveIntelPropertyFile(uint256)": {
        "notice": "returns the IPFS multihash address for the IntelProperty file's content "
      },
      "retrieveRightsHolderInfo(uint256)": {
        "notice": "returns the rightsHolder information for the IntelProperty file requested "
      },
      "setActiveFlag(uint256,bool)": {
        "notice": "sets the IntelProperty file's active flag, used for controling visibility of the contents "
      },
      "setFinalizedFlag(uint256)": {
        "notice": "sets the IntelProperty file's status to Finalized, limiting what can be changed "
      },
      "transferRightsHolderTokens(uint256,address,address,uint256)": {
        "notice": "controls the transfer of rightsHolder's tokens specific to the IntelProperty file ID supplied  "
      }
    },
    "notice": "This contract is an ERC20 token that works in conjuction with the IntelPropertyNFT (ERC721) contract.  This contract tracks the IPFS hash address of the intellectual property (for instance, an art or music file)  and the rightsHolder information for each piece (represented by the nftID issued by the IntelPropertyNFT contract).  Tokens are minted in batches of 1000 (see intelPropertyTokenLimit) and issued to the rightsHolders of the  NFT/Intellectual Property file. Each batch belongs to one NFT and the rightsHolders who own the rights to it.",
    "version": 1
  }
}