{
  "contractName": "IntelPropertyTokens",
  "abi": [
    {
      "inputs": [],
      "stateMutability": "nonpayable",
      "type": "constructor"
    },
    {
      "anonymous": false,
      "inputs": [
        {
          "indexed": true,
          "internalType": "address",
          "name": "owner",
          "type": "address"
        },
        {
          "indexed": true,
          "internalType": "address",
          "name": "spender",
          "type": "address"
        },
        {
          "indexed": false,
          "internalType": "uint256",
          "name": "value",
          "type": "uint256"
        }
      ],
      "name": "Approval",
      "type": "event"
    },
    {
      "anonymous": false,
      "inputs": [
        {
          "indexed": true,
          "internalType": "address",
          "name": "previousOwner",
          "type": "address"
        },
        {
          "indexed": true,
          "internalType": "address",
          "name": "newOwner",
          "type": "address"
        }
      ],
      "name": "OwnershipTransferred",
      "type": "event"
    },
    {
      "anonymous": false,
      "inputs": [
        {
          "indexed": true,
          "internalType": "address",
          "name": "from",
          "type": "address"
        },
        {
          "indexed": true,
          "internalType": "address",
          "name": "to",
          "type": "address"
        },
        {
          "indexed": false,
          "internalType": "uint256",
          "name": "value",
          "type": "uint256"
        }
      ],
      "name": "Transfer",
      "type": "event"
    },
    {
      "anonymous": false,
      "inputs": [
        {
          "indexed": true,
          "internalType": "uint256",
          "name": "nftID",
          "type": "uint256"
        },
        {
          "indexed": false,
          "internalType": "bytes32",
          "name": "digest",
          "type": "bytes32"
        },
        {
          "indexed": false,
          "internalType": "uint8",
          "name": "hashFunction",
          "type": "uint8"
        },
        {
          "indexed": false,
          "internalType": "uint8",
          "name": "size",
          "type": "uint8"
        }
      ],
      "name": "ipfsHashSetToNFT",
      "type": "event"
    },
    {
      "inputs": [
        {
          "internalType": "address",
          "name": "owner",
          "type": "address"
        },
        {
          "internalType": "address",
          "name": "spender",
          "type": "address"
        }
      ],
      "name": "allowance",
      "outputs": [
        {
          "internalType": "uint256",
          "name": "",
          "type": "uint256"
        }
      ],
      "stateMutability": "view",
      "type": "function",
      "constant": true
    },
    {
      "inputs": [
        {
          "internalType": "address",
          "name": "spender",
          "type": "address"
        },
        {
          "internalType": "uint256",
          "name": "amount",
          "type": "uint256"
        }
      ],
      "name": "approve",
      "outputs": [
        {
          "internalType": "bool",
          "name": "",
          "type": "bool"
        }
      ],
      "stateMutability": "nonpayable",
      "type": "function"
    },
    {
      "inputs": [
        {
          "internalType": "address",
          "name": "account",
          "type": "address"
        }
      ],
      "name": "balanceOf",
      "outputs": [
        {
          "internalType": "uint256",
          "name": "",
          "type": "uint256"
        }
      ],
      "stateMutability": "view",
      "type": "function",
      "constant": true
    },
    {
      "inputs": [],
      "name": "decimals",
      "outputs": [
        {
          "internalType": "uint8",
          "name": "",
          "type": "uint8"
        }
      ],
      "stateMutability": "view",
      "type": "function",
      "constant": true
    },
    {
      "inputs": [
        {
          "internalType": "address",
          "name": "spender",
          "type": "address"
        },
        {
          "internalType": "uint256",
          "name": "subtractedValue",
          "type": "uint256"
        }
      ],
      "name": "decreaseAllowance",
      "outputs": [
        {
          "internalType": "bool",
          "name": "",
          "type": "bool"
        }
      ],
      "stateMutability": "nonpayable",
      "type": "function"
    },
    {
      "inputs": [
        {
          "internalType": "address",
          "name": "spender",
          "type": "address"
        },
        {
          "internalType": "uint256",
          "name": "addedValue",
          "type": "uint256"
        }
      ],
      "name": "increaseAllowance",
      "outputs": [
        {
          "internalType": "bool",
          "name": "",
          "type": "bool"
        }
      ],
      "stateMutability": "nonpayable",
      "type": "function"
    },
    {
      "inputs": [],
      "name": "name",
      "outputs": [
        {
          "internalType": "string",
          "name": "",
          "type": "string"
        }
      ],
      "stateMutability": "view",
      "type": "function",
      "constant": true
    },
    {
      "inputs": [],
      "name": "owner",
      "outputs": [
        {
          "internalType": "address",
          "name": "",
          "type": "address"
        }
      ],
      "stateMutability": "view",
      "type": "function",
      "constant": true
    },
    {
      "inputs": [],
      "name": "renounceOwnership",
      "outputs": [],
      "stateMutability": "nonpayable",
      "type": "function"
    },
    {
      "inputs": [],
      "name": "symbol",
      "outputs": [
        {
          "internalType": "string",
          "name": "",
          "type": "string"
        }
      ],
      "stateMutability": "view",
      "type": "function",
      "constant": true
    },
    {
      "inputs": [],
      "name": "totalSupply",
      "outputs": [
        {
          "internalType": "uint256",
          "name": "",
          "type": "uint256"
        }
      ],
      "stateMutability": "view",
      "type": "function",
      "constant": true
    },
    {
      "inputs": [
        {
          "internalType": "address",
          "name": "recipient",
          "type": "address"
        },
        {
          "internalType": "uint256",
          "name": "amount",
          "type": "uint256"
        }
      ],
      "name": "transfer",
      "outputs": [
        {
          "internalType": "bool",
          "name": "",
          "type": "bool"
        }
      ],
      "stateMutability": "nonpayable",
      "type": "function"
    },
    {
      "inputs": [
        {
          "internalType": "address",
          "name": "sender",
          "type": "address"
        },
        {
          "internalType": "address",
          "name": "recipient",
          "type": "address"
        },
        {
          "internalType": "uint256",
          "name": "amount",
          "type": "uint256"
        }
      ],
      "name": "transferFrom",
      "outputs": [
        {
          "internalType": "bool",
          "name": "",
          "type": "bool"
        }
      ],
      "stateMutability": "nonpayable",
      "type": "function"
    },
    {
      "inputs": [
        {
          "internalType": "address",
          "name": "newOwner",
          "type": "address"
        }
      ],
      "name": "transferOwnership",
      "outputs": [],
      "stateMutability": "nonpayable",
      "type": "function"
    },
    {
      "inputs": [
        {
          "internalType": "uint256",
          "name": "_nftID",
          "type": "uint256"
        },
        {
          "internalType": "bytes32",
          "name": "_digest",
          "type": "bytes32"
        },
        {
          "internalType": "uint8",
          "name": "_hashFunction",
          "type": "uint8"
        },
        {
          "internalType": "uint8",
          "name": "_size",
          "type": "uint8"
        },
        {
          "internalType": "address[]",
          "name": "_rightsHolders",
          "type": "address[]"
        },
        {
          "internalType": "uint16[]",
          "name": "_rightsHolderTypes",
          "type": "uint16[]"
        },
        {
          "internalType": "uint256",
          "name": "_agreementID",
          "type": "uint256"
        }
      ],
      "name": "addIntelPropertyFile",
      "outputs": [],
      "stateMutability": "nonpayable",
      "type": "function"
    },
    {
      "inputs": [
        {
          "internalType": "uint256",
          "name": "_nftID",
          "type": "uint256"
        },
        {
          "internalType": "address",
          "name": "_rightsHolder",
          "type": "address"
        },
        {
          "internalType": "address",
          "name": "_to",
          "type": "address"
        },
        {
          "internalType": "uint256",
          "name": "_amount",
          "type": "uint256"
        }
      ],
      "name": "transferRightsHolderTokens",
      "outputs": [
        {
          "internalType": "bool",
          "name": "",
          "type": "bool"
        }
      ],
      "stateMutability": "nonpayable",
      "type": "function"
    },
    {
      "inputs": [
        {
          "internalType": "uint256",
          "name": "_nftID",
          "type": "uint256"
        }
      ],
      "name": "retrieveIntelPropertyFile",
      "outputs": [
        {
          "components": [
            {
              "internalType": "bytes32",
              "name": "digest",
              "type": "bytes32"
            },
            {
              "internalType": "uint8",
              "name": "hashFunction",
              "type": "uint8"
            },
            {
              "internalType": "uint8",
              "name": "size",
              "type": "uint8"
            }
          ],
          "internalType": "struct IntelPropertyTokens.Multihash",
          "name": "",
          "type": "tuple"
        }
      ],
      "stateMutability": "view",
      "type": "function",
      "constant": true
    },
    {
      "inputs": [
        {
          "internalType": "uint256",
          "name": "_nftID",
          "type": "uint256"
        }
      ],
      "name": "retrieveRightsHolderInfo",
      "outputs": [
        {
          "components": [
            {
              "internalType": "uint256",
              "name": "agreementID",
              "type": "uint256"
            },
            {
              "internalType": "address",
              "name": "rightsHolderAddr",
              "type": "address"
            },
            {
              "internalType": "uint16",
              "name": "rightsHolderType",
              "type": "uint16"
            },
            {
              "internalType": "uint256",
              "name": "tokensHeld",
              "type": "uint256"
            }
          ],
          "internalType": "struct IntelPropertyTokens.RightsHolderSpec[]",
          "name": "",
          "type": "tuple[]"
        }
      ],
      "stateMutability": "view",
      "type": "function",
      "constant": true
    },
    {
      "inputs": [],
      "name": "numberOfIntelPropertyFiles",
      "outputs": [
        {
          "internalType": "uint256",
          "name": "totalEntries",
          "type": "uint256"
        }
      ],
      "stateMutability": "view",
      "type": "function",
      "constant": true
    },
    {
      "inputs": [
        {
          "internalType": "uint256",
          "name": "_nftID",
          "type": "uint256"
        },
        {
          "internalType": "bool",
          "name": "_active",
          "type": "bool"
        }
      ],
      "name": "setActiveFlag",
      "outputs": [],
      "stateMutability": "nonpayable",
      "type": "function"
    },
    {
      "inputs": [
        {
          "internalType": "uint256",
          "name": "_nftID",
          "type": "uint256"
        }
      ],
      "name": "getActiveFlag",
      "outputs": [
        {
          "internalType": "bool",
          "name": "",
          "type": "bool"
        }
      ],
      "stateMutability": "nonpayable",
      "type": "function"
    },
    {
      "inputs": [
        {
          "internalType": "uint256",
          "name": "_nftID",
          "type": "uint256"
        }
      ],
      "name": "setFinalizedFlag",
      "outputs": [],
      "stateMutability": "nonpayable",
      "type": "function"
    },
    {
      "inputs": [
        {
          "internalType": "uint256",
          "name": "_nftID",
          "type": "uint256"
        }
      ],
      "name": "getFinalizedFlag",
      "outputs": [
        {
          "internalType": "bool",
          "name": "",
          "type": "bool"
        }
      ],
      "stateMutability": "nonpayable",
      "type": "function"
    }
  ],
  "bytecode": "0x60806040526103e86008553480156200001757600080fd5b506040518060400160405280601981526020017f496e74656c6c65637475616c50726f7065727479546f6b656e000000000000008152506040518060400160405280600381526020017f495054000000000000000000000000000000000000000000000000000000000081525081600390805190602001906200009c929190620001b8565b508060049080519060200190620000b5929190620001b8565b5050506000620000ca620001b060201b60201c565b905080600560006101000a81548173ffffffffffffffffffffffffffffffffffffffff021916908373ffffffffffffffffffffffffffffffffffffffff1602179055508073ffffffffffffffffffffffffffffffffffffffff16600073ffffffffffffffffffffffffffffffffffffffff167f8be0079c531659141344cd1fd0a4f28419497f9722a3daafe3b4186f6b6457e060405160405180910390a35033600960006101000a81548173ffffffffffffffffffffffffffffffffffffffff021916908373ffffffffffffffffffffffffffffffffffffffff160217905550620002cd565b600033905090565b828054620001c69062000268565b90600052602060002090601f016020900481019282620001ea576000855562000236565b82601f106200020557805160ff191683800117855562000236565b8280016001018555821562000236579182015b828111156200023557825182559160200191906001019062000218565b5b50905062000245919062000249565b5090565b5b80821115620002645760008160009055506001016200024a565b5090565b600060028204905060018216806200028157607f821691505b602082108114156200029857620002976200029e565b5b50919050565b7f4e487b7100000000000000000000000000000000000000000000000000000000600052602260045260246000fd5b612deb80620002dd6000396000f3fe608060405234801561001057600080fd5b506004361061014d5760003560e01c8063715018a6116100c3578063a9059cbb1161007c578063a9059cbb146103dc578063b42f71741461040c578063ca1f582c1461043c578063dd62ed3e14610458578063e7c7aae514610488578063f2fde38b146104a45761014d565b8063715018a61461032c5780638da5cb5b1461033657806392e90cd01461035457806395d89b411461037057806397050c401461038e578063a457c2d7146103ac5761014d565b806318160ddd1161011557806318160ddd1461023057806323b872dd1461024e578063313ce5671461027e578063395093511461029c57806356fec73f146102cc57806370a08231146102fc5761014d565b806306fdde0314610152578063070299e014610170578063095ea7b3146101a0578063109d1982146101d05780631292734914610200575b600080fd5b61015a6104c0565b60405161016791906127f3565b60405180910390f35b61018a60048036038101906101859190611f08565b610552565b604051610197919061277f565b60405180910390f35b6101ba60048036038101906101b59190611ea3565b610657565b6040516101c791906127a1565b60405180910390f35b6101ea60048036038101906101e59190611f08565b610675565b6040516101f791906129b5565b60405180910390f35b61021a60048036038101906102159190611f31565b6106ef565b60405161022791906127a1565b60405180910390f35b61023861090b565b60405161024591906129d0565b60405180910390f35b61026860048036038101906102639190611e54565b610915565b60405161027591906127a1565b60405180910390f35b610286610a16565b60405161029391906129eb565b60405180910390f35b6102b660048036038101906102b19190611ea3565b610a1f565b6040516102c391906127a1565b60405180910390f35b6102e660048036038101906102e19190611f08565b610acb565b6040516102f391906127a1565b60405180910390f35b61031660048036038101906103119190611def565b610afd565b60405161032391906129d0565b60405180910390f35b610334610b45565b005b61033e610c82565b60405161034b9190612764565b60405180910390f35b61036e60048036038101906103699190611fd0565b610cac565b005b61037861104c565b60405161038591906127f3565b60405180910390f35b6103966110de565b6040516103a391906129d0565b60405180910390f35b6103c660048036038101906103c19190611ea3565b6110e8565b6040516103d391906127a1565b60405180910390f35b6103f660048036038101906103f19190611ea3565b6111dc565b60405161040391906127a1565b60405180910390f35b61042660048036038101906104219190611f08565b6111fa565b60405161043391906127a1565b60405180910390f35b61045660048036038101906104519190611f08565b61122c565b005b610472600480360381019061046d9190611e18565b6112e0565b60405161047f91906129d0565b60405180910390f35b6104a2600480360381019061049d9190611f94565b611367565b005b6104be60048036038101906104b99190611def565b61141b565b005b6060600380546104cf90612bb6565b80601f01602080910402602001604051908101604052809291908181526020018280546104fb90612bb6565b80156105485780601f1061051d57610100808354040283529160200191610548565b820191906000526020600020905b81548152906001019060200180831161052b57829003601f168201915b5050505050905090565b6060600060066000848152602001908152602001600020905080600401805480602002602001604051908101604052809291908181526020016000905b8282101561064b5783829060005260206000209060030201604051806080016040529081600082015481526020016001820160009054906101000a900473ffffffffffffffffffffffffffffffffffffffff1673ffffffffffffffffffffffffffffffffffffffff1673ffffffffffffffffffffffffffffffffffffffff1681526020016001820160149054906101000a900461ffff1661ffff1661ffff1681526020016002820154815250508152602001906001019061058f565b50505050915050919050565b600061066b6106646115c7565b84846115cf565b6001905092915050565b61067d611cb3565b600060066000848152602001908152602001600020905080600101604051806060016040529081600082015481526020016001820160009054906101000a900460ff1660ff1660ff1681526020016001820160019054906101000a900460ff1660ff1660ff1681525050915050919050565b60008060066000878152602001908152602001600020905060005b81600401805490508161ffff161015610900576000826004018261ffff168154811061075f577f4e487b7100000000000000000000000000000000000000000000000000000000600052603260045260246000fd5b906000526020600020906003020190508673ffffffffffffffffffffffffffffffffffffffff168160010160009054906101000a900473ffffffffffffffffffffffffffffffffffffffff1673ffffffffffffffffffffffffffffffffffffffff1614156108ec578673ffffffffffffffffffffffffffffffffffffffff163373ffffffffffffffffffffffffffffffffffffffff16148061084e5750600960009054906101000a900473ffffffffffffffffffffffffffffffffffffffff1673ffffffffffffffffffffffffffffffffffffffff163373ffffffffffffffffffffffffffffffffffffffff16145b61088d576040517f08c379a0000000000000000000000000000000000000000000000000000000008152600401610884906128d5565b60405180910390fd5b84816002015410156108d4576040517f08c379a00000000000000000000000000000000000000000000000000000000081526004016108cb90612835565b60405180910390fd5b6108df878787610915565b5060019350505050610903565b5080806108f890612be8565b91505061070a565b50505b949350505050565b6000600254905090565b600061092284848461179a565b6000600160008673ffffffffffffffffffffffffffffffffffffffff1673ffffffffffffffffffffffffffffffffffffffff168152602001908152602001600020600061096d6115c7565b73ffffffffffffffffffffffffffffffffffffffff1673ffffffffffffffffffffffffffffffffffffffff168152602001908152602001600020549050828110156109ed576040517f08c379a00000000000000000000000000000000000000000000000000000000081526004016109e4906128f5565b60405180910390fd5b610a0a856109f96115c7565b8584610a059190612ae2565b6115cf565b60019150509392505050565b60006012905090565b6000610ac1610a2c6115c7565b848460016000610a3a6115c7565b73ffffffffffffffffffffffffffffffffffffffff1673ffffffffffffffffffffffffffffffffffffffff16815260200190815260200160002060008873ffffffffffffffffffffffffffffffffffffffff1673ffffffffffffffffffffffffffffffffffffffff16815260200190815260200160002054610abc9190612a5b565b6115cf565b6001905092915050565b6000806006600084815260200190815260200160002090508060030160019054906101000a900460ff16915050919050565b60008060008373ffffffffffffffffffffffffffffffffffffffff1673ffffffffffffffffffffffffffffffffffffffff168152602001908152602001600020549050919050565b610b4d6115c7565b73ffffffffffffffffffffffffffffffffffffffff16610b6b610c82565b73ffffffffffffffffffffffffffffffffffffffff1614610bc1576040517f08c379a0000000000000000000000000000000000000000000000000000000008152600401610bb890612915565b60405180910390fd5b600073ffffffffffffffffffffffffffffffffffffffff16600560009054906101000a900473ffffffffffffffffffffffffffffffffffffffff1673ffffffffffffffffffffffffffffffffffffffff167f8be0079c531659141344cd1fd0a4f28419497f9722a3daafe3b4186f6b6457e060405160405180910390a36000600560006101000a81548173ffffffffffffffffffffffffffffffffffffffff021916908373ffffffffffffffffffffffffffffffffffffffff160217905550565b6000600560009054906101000a900473ffffffffffffffffffffffffffffffffffffffff16905090565b610cb46115c7565b73ffffffffffffffffffffffffffffffffffffffff16610cd2610c82565b73ffffffffffffffffffffffffffffffffffffffff1614610d28576040517f08c379a0000000000000000000000000000000000000000000000000000000008152600401610d1f90612915565b60405180910390fd5b828290508585905014610d70576040517f08c379a0000000000000000000000000000000000000000000000000000000008152600401610d67906128b5565b60405180910390fd5b6000600660008b81526020019081526020016000209050600960009054906101000a900473ffffffffffffffffffffffffffffffffffffffff168160000160006101000a81548173ffffffffffffffffffffffffffffffffffffffff021916908373ffffffffffffffffffffffffffffffffffffffff1602179055506000816001019050898160000181905550888160010160006101000a81548160ff021916908360ff160217905550878160010160016101000a81548160ff021916908360ff1602179055508a7fc7061d9ef2bf5e27eae49fa823eef41bc416fc9df5b7d50b79e234943b93d0218b8b8b604051610e6b939291906127bc565b60405180910390a260005b8787905081101561101d57600060405180608001604052808681526020018a8a85818110610ecd577f4e487b7100000000000000000000000000000000000000000000000000000000600052603260045260246000fd5b9050602002016020810190610ee29190611def565b73ffffffffffffffffffffffffffffffffffffffff168152602001888885818110610f36577f4e487b7100000000000000000000000000000000000000000000000000000000600052603260045260246000fd5b9050602002016020810190610f4b9190611edf565b61ffff16815260200160008152509050836004018190806001815401808255809150506001900390600052602060002090600302016000909190919091506000820151816000015560208201518160010160006101000a81548173ffffffffffffffffffffffffffffffffffffffff021916908373ffffffffffffffffffffffffffffffffffffffff16021790555060408201518160010160146101000a81548161ffff021916908361ffff16021790555060608201518160020155505050808061101590612c13565b915050610e76565b506007600081548092919061103190612c13565b919050555061103f8b611a19565b5050505050505050505050565b60606004805461105b90612bb6565b80601f016020809104026020016040519081016040528092919081815260200182805461108790612bb6565b80156110d45780601f106110a9576101008083540402835291602001916110d4565b820191906000526020600020905b8154815290600101906020018083116110b757829003601f168201915b5050505050905090565b6000600754905090565b600080600160006110f76115c7565b73ffffffffffffffffffffffffffffffffffffffff1673ffffffffffffffffffffffffffffffffffffffff16815260200190815260200160002060008573ffffffffffffffffffffffffffffffffffffffff1673ffffffffffffffffffffffffffffffffffffffff168152602001908152602001600020549050828110156111b4576040517f08c379a00000000000000000000000000000000000000000000000000000000081526004016111ab90612975565b60405180910390fd5b6111d16111bf6115c7565b8585846111cc9190612ae2565b6115cf565b600191505092915050565b60006111f06111e96115c7565b848461179a565b6001905092915050565b6000806006600084815260200190815260200160002090508060030160009054906101000a900460ff16915050919050565b6112346115c7565b73ffffffffffffffffffffffffffffffffffffffff16611252610c82565b73ffffffffffffffffffffffffffffffffffffffff16146112a8576040517f08c379a000000000000000000000000000000000000000000000000000000000815260040161129f90612915565b60405180910390fd5b600060066000838152602001908152602001600020905060018160030160016101000a81548160ff0219169083151502179055505050565b6000600160008473ffffffffffffffffffffffffffffffffffffffff1673ffffffffffffffffffffffffffffffffffffffff16815260200190815260200160002060008373ffffffffffffffffffffffffffffffffffffffff1673ffffffffffffffffffffffffffffffffffffffff16815260200190815260200160002054905092915050565b61136f6115c7565b73ffffffffffffffffffffffffffffffffffffffff1661138d610c82565b73ffffffffffffffffffffffffffffffffffffffff16146113e3576040517f08c379a00000000000000000000000000000000000000000000000000000000081526004016113da90612915565b60405180910390fd5b6000600660008481526020019081526020016000209050818160030160006101000a81548160ff021916908315150217905550505050565b6114236115c7565b73ffffffffffffffffffffffffffffffffffffffff16611441610c82565b73ffffffffffffffffffffffffffffffffffffffff1614611497576040517f08c379a000000000000000000000000000000000000000000000000000000000815260040161148e90612915565b60405180910390fd5b600073ffffffffffffffffffffffffffffffffffffffff168173ffffffffffffffffffffffffffffffffffffffff161415611507576040517f08c379a00000000000000000000000000000000000000000000000000000000081526004016114fe90612855565b60405180910390fd5b8073ffffffffffffffffffffffffffffffffffffffff16600560009054906101000a900473ffffffffffffffffffffffffffffffffffffffff1673ffffffffffffffffffffffffffffffffffffffff167f8be0079c531659141344cd1fd0a4f28419497f9722a3daafe3b4186f6b6457e060405160405180910390a380600560006101000a81548173ffffffffffffffffffffffffffffffffffffffff021916908373ffffffffffffffffffffffffffffffffffffffff16021790555050565b600033905090565b600073ffffffffffffffffffffffffffffffffffffffff168373ffffffffffffffffffffffffffffffffffffffff16141561163f576040517f08c379a000000000000000000000000000000000000000000000000000000000815260040161163690612955565b60405180910390fd5b600073ffffffffffffffffffffffffffffffffffffffff168273ffffffffffffffffffffffffffffffffffffffff1614156116af576040517f08c379a00000000000000000000000000000000000000000000000000000000081526004016116a690612875565b60405180910390fd5b80600160008573ffffffffffffffffffffffffffffffffffffffff1673ffffffffffffffffffffffffffffffffffffffff16815260200190815260200160002060008473ffffffffffffffffffffffffffffffffffffffff1673ffffffffffffffffffffffffffffffffffffffff168152602001908152602001600020819055508173ffffffffffffffffffffffffffffffffffffffff168373ffffffffffffffffffffffffffffffffffffffff167f8c5be1e5ebec7d5bd14f71427d1e84f3dd0314c0f7b2291e5b200ac8c7c3b9258360405161178d91906129d0565b60405180910390a3505050565b600073ffffffffffffffffffffffffffffffffffffffff168373ffffffffffffffffffffffffffffffffffffffff16141561180a576040517f08c379a000000000000000000000000000000000000000000000000000000000815260040161180190612935565b60405180910390fd5b600073ffffffffffffffffffffffffffffffffffffffff168273ffffffffffffffffffffffffffffffffffffffff16141561187a576040517f08c379a000000000000000000000000000000000000000000000000000000000815260040161187190612815565b60405180910390fd5b611885838383611b5a565b60008060008573ffffffffffffffffffffffffffffffffffffffff1673ffffffffffffffffffffffffffffffffffffffff1681526020019081526020016000205490508181101561190b576040517f08c379a000000000000000000000000000000000000000000000000000000000815260040161190290612895565b60405180910390fd5b81816119179190612ae2565b6000808673ffffffffffffffffffffffffffffffffffffffff1673ffffffffffffffffffffffffffffffffffffffff16815260200190815260200160002081905550816000808573ffffffffffffffffffffffffffffffffffffffff1673ffffffffffffffffffffffffffffffffffffffff16815260200190815260200160002060008282546119a79190612a5b565b925050819055508273ffffffffffffffffffffffffffffffffffffffff168473ffffffffffffffffffffffffffffffffffffffff167fddf252ad1be2c89b69c2b068fc378daa952ba7f163c4a11628f55a4df523b3ef84604051611a0b91906129d0565b60405180910390a350505050565b600060066000838152602001908152602001600020905060008160040180549050600854611a479190612c5c565b905060008260040180549050600854611a609190612ab1565b905060005b83600401805490508161ffff161015611b53576000808261ffff16148015611a8d5750600084115b611a975782611aa4565b8383611aa39190612a5b565b5b90506000856004018361ffff1681548110611ae8577f4e487b7100000000000000000000000000000000000000000000000000000000600052603260045260246000fd5b90600052602060002090600302019050611b268160010160009054906101000a900473ffffffffffffffffffffffffffffffffffffffff1683611b5f565b818160020154611b369190612a5b565b816002018190555050508080611b4b90612be8565b915050611a65565b5050505050565b505050565b600073ffffffffffffffffffffffffffffffffffffffff168273ffffffffffffffffffffffffffffffffffffffff161415611bcf576040517f08c379a0000000000000000000000000000000000000000000000000000000008152600401611bc690612995565b60405180910390fd5b611bdb60008383611b5a565b8060026000828254611bed9190612a5b565b92505081905550806000808473ffffffffffffffffffffffffffffffffffffffff1673ffffffffffffffffffffffffffffffffffffffff1681526020019081526020016000206000828254611c429190612a5b565b925050819055508173ffffffffffffffffffffffffffffffffffffffff16600073ffffffffffffffffffffffffffffffffffffffff167fddf252ad1be2c89b69c2b068fc378daa952ba7f163c4a11628f55a4df523b3ef83604051611ca791906129d0565b60405180910390a35050565b604051806060016040528060008019168152602001600060ff168152602001600060ff1681525090565b600081359050611cec81612d2b565b92915050565b60008083601f840112611d0457600080fd5b8235905067ffffffffffffffff811115611d1d57600080fd5b602083019150836020820283011115611d3557600080fd5b9250929050565b60008083601f840112611d4e57600080fd5b8235905067ffffffffffffffff811115611d6757600080fd5b602083019150836020820283011115611d7f57600080fd5b9250929050565b600081359050611d9581612d42565b92915050565b600081359050611daa81612d59565b92915050565b600081359050611dbf81612d70565b92915050565b600081359050611dd481612d87565b92915050565b600081359050611de981612d9e565b92915050565b600060208284031215611e0157600080fd5b6000611e0f84828501611cdd565b91505092915050565b60008060408385031215611e2b57600080fd5b6000611e3985828601611cdd565b9250506020611e4a85828601611cdd565b9150509250929050565b600080600060608486031215611e6957600080fd5b6000611e7786828701611cdd565b9350506020611e8886828701611cdd565b9250506040611e9986828701611dc5565b9150509250925092565b60008060408385031215611eb657600080fd5b6000611ec485828601611cdd565b9250506020611ed585828601611dc5565b9150509250929050565b600060208284031215611ef157600080fd5b6000611eff84828501611db0565b91505092915050565b600060208284031215611f1a57600080fd5b6000611f2884828501611dc5565b91505092915050565b60008060008060808587031215611f4757600080fd5b6000611f5587828801611dc5565b9450506020611f6687828801611cdd565b9350506040611f7787828801611cdd565b9250506060611f8887828801611dc5565b91505092959194509250565b60008060408385031215611fa757600080fd5b6000611fb585828601611dc5565b9250506020611fc685828601611d86565b9150509250929050565b600080600080600080600080600060e08a8c031215611fee57600080fd5b6000611ffc8c828d01611dc5565b995050602061200d8c828d01611d9b565b985050604061201e8c828d01611dda565b975050606061202f8c828d01611dda565b96505060808a013567ffffffffffffffff81111561204c57600080fd5b6120588c828d01611cf2565b955095505060a08a013567ffffffffffffffff81111561207757600080fd5b6120838c828d01611d3c565b935093505060c06120968c828d01611dc5565b9150509295985092959850929598565b60006120b283836126c4565b60808301905092915050565b6120c781612b16565b82525050565b6120d681612b16565b82525050565b60006120e782612a16565b6120f18185612a39565b93506120fc83612a06565b8060005b8381101561212d57815161211488826120a6565b975061211f83612a2c565b925050600181019050612100565b5085935050505092915050565b61214381612b28565b82525050565b61215281612b34565b82525050565b61216181612b34565b82525050565b600061217282612a21565b61217c8185612a4a565b935061218c818560208601612b83565b61219581612d1a565b840191505092915050565b60006121ad602383612a4a565b91507f45524332303a207472616e7366657220746f20746865207a65726f206164647260008301527f65737300000000000000000000000000000000000000000000000000000000006020830152604082019050919050565b6000612213602983612a4a565b91507f526967687473486f6c64657220646f6573206e6f74206861766520656e6f756760008301527f6820746f6b656e732e00000000000000000000000000000000000000000000006020830152604082019050919050565b6000612279602683612a4a565b91507f4f776e61626c653a206e6577206f776e657220697320746865207a65726f206160008301527f64647265737300000000000000000000000000000000000000000000000000006020830152604082019050919050565b60006122df602283612a4a565b91507f45524332303a20617070726f766520746f20746865207a65726f20616464726560008301527f73730000000000000000000000000000000000000000000000000000000000006020830152604082019050919050565b6000612345602683612a4a565b91507f45524332303a207472616e7366657220616d6f756e742065786365656473206260008301527f616c616e636500000000000000000000000000000000000000000000000000006020830152604082019050919050565b60006123ab604c83612a4a565b91507f6c656e677468206f6620726967687473486f6c64657273206d757374206d617460008301527f636820746865206c656e677468206f6620726967687473486f6c64657254797060208301527f6573207375626d697474656400000000000000000000000000000000000000006040830152606082019050919050565b6000612437601d83612a4a565b91507f6d73672e73656e646572206973206e6f7420617574686f72697a65642e0000006000830152602082019050919050565b6000612477602883612a4a565b91507f45524332303a207472616e7366657220616d6f756e742065786365656473206160008301527f6c6c6f77616e63650000000000000000000000000000000000000000000000006020830152604082019050919050565b60006124dd602083612a4a565b91507f4f776e61626c653a2063616c6c6572206973206e6f7420746865206f776e65726000830152602082019050919050565b600061251d602583612a4a565b91507f45524332303a207472616e736665722066726f6d20746865207a65726f20616460008301527f64726573730000000000000000000000000000000000000000000000000000006020830152604082019050919050565b6000612583602483612a4a565b91507f45524332303a20617070726f76652066726f6d20746865207a65726f2061646460008301527f72657373000000000000000000000000000000000000000000000000000000006020830152604082019050919050565b60006125e9602583612a4a565b91507f45524332303a2064656372656173656420616c6c6f77616e63652062656c6f7760008301527f207a65726f0000000000000000000000000000000000000000000000000000006020830152604082019050919050565b600061264f601f83612a4a565b91507f45524332303a206d696e7420746f20746865207a65726f2061646472657373006000830152602082019050919050565b6060820160008201516126986000850182612149565b5060208201516126ab6020850182612746565b5060408201516126be6040850182612746565b50505050565b6080820160008201516126da6000850182612728565b5060208201516126ed60208501826120be565b5060408201516127006040850182612719565b5060608201516127136060850182612728565b50505050565b61272281612b3e565b82525050565b61273181612b6c565b82525050565b61274081612b6c565b82525050565b61274f81612b76565b82525050565b61275e81612b76565b82525050565b600060208201905061277960008301846120cd565b92915050565b6000602082019050818103600083015261279981846120dc565b905092915050565b60006020820190506127b6600083018461213a565b92915050565b60006060820190506127d16000830186612158565b6127de6020830185612755565b6127eb6040830184612755565b949350505050565b6000602082019050818103600083015261280d8184612167565b905092915050565b6000602082019050818103600083015261282e816121a0565b9050919050565b6000602082019050818103600083015261284e81612206565b9050919050565b6000602082019050818103600083015261286e8161226c565b9050919050565b6000602082019050818103600083015261288e816122d2565b9050919050565b600060208201905081810360008301526128ae81612338565b9050919050565b600060208201905081810360008301526128ce8161239e565b9050919050565b600060208201905081810360008301526128ee8161242a565b9050919050565b6000602082019050818103600083015261290e8161246a565b9050919050565b6000602082019050818103600083015261292e816124d0565b9050919050565b6000602082019050818103600083015261294e81612510565b9050919050565b6000602082019050818103600083015261296e81612576565b9050919050565b6000602082019050818103600083015261298e816125dc565b9050919050565b600060208201905081810360008301526129ae81612642565b9050919050565b60006060820190506129ca6000830184612682565b92915050565b60006020820190506129e56000830184612737565b92915050565b6000602082019050612a006000830184612755565b92915050565b6000819050602082019050919050565b600081519050919050565b600081519050919050565b6000602082019050919050565b600082825260208201905092915050565b600082825260208201905092915050565b6000612a6682612b6c565b9150612a7183612b6c565b9250827fffffffffffffffffffffffffffffffffffffffffffffffffffffffffffffffff03821115612aa657612aa5612c8d565b5b828201905092915050565b6000612abc82612b6c565b9150612ac783612b6c565b925082612ad757612ad6612cbc565b5b828204905092915050565b6000612aed82612b6c565b9150612af883612b6c565b925082821015612b0b57612b0a612c8d565b5b828203905092915050565b6000612b2182612b4c565b9050919050565b60008115159050919050565b6000819050919050565b600061ffff82169050919050565b600073ffffffffffffffffffffffffffffffffffffffff82169050919050565b6000819050919050565b600060ff82169050919050565b60005b83811015612ba1578082015181840152602081019050612b86565b83811115612bb0576000848401525b50505050565b60006002820490506001821680612bce57607f821691505b60208210811415612be257612be1612ceb565b5b50919050565b6000612bf382612b3e565b915061ffff821415612c0857612c07612c8d565b5b600182019050919050565b6000612c1e82612b6c565b91507fffffffffffffffffffffffffffffffffffffffffffffffffffffffffffffffff821415612c5157612c50612c8d565b5b600182019050919050565b6000612c6782612b6c565b9150612c7283612b6c565b925082612c8257612c81612cbc565b5b828206905092915050565b7f4e487b7100000000000000000000000000000000000000000000000000000000600052601160045260246000fd5b7f4e487b7100000000000000000000000000000000000000000000000000000000600052601260045260246000fd5b7f4e487b7100000000000000000000000000000000000000000000000000000000600052602260045260246000fd5b6000601f19601f8301169050919050565b612d3481612b16565b8114612d3f57600080fd5b50565b612d4b81612b28565b8114612d5657600080fd5b50565b612d6281612b34565b8114612d6d57600080fd5b50565b612d7981612b3e565b8114612d8457600080fd5b50565b612d9081612b6c565b8114612d9b57600080fd5b50565b612da781612b76565b8114612db257600080fd5b5056fea2646970667358221220015b3d74d131015c05b04e49dbd8a3a8c3b0c12061e5559e6fa5fabeabadd05764736f6c63430008000033",
  "immutableReferences": {},
  "source": "// SPDX-License-Identifier: MIT\r\npragma solidity 0.8.0;\r\npragma experimental ABIEncoderV2;\r\n\r\nimport \"@openzeppelin/contracts/token/ERC20/ERC20.sol\";\r\nimport \"@openzeppelin/contracts/access/Ownable.sol\";\r\n\r\ncontract IntelPropertyTokens is ERC20, Ownable {\r\n\tmapping (uint => IntelPropertyFile) intelPropertyFile; /** @dev nftIndex => intelPropertyFile (nftIndex => Mulithash is covered by this mapping)  */\r\n\tuint totalIntelPropertyFiles; /** @dev total of all IntelProperty files in the contract */\r\n\tuint intelPropertyTokenLimit = 1000; /** @dev should probably be 1000 (or 10000) x # of rightsHolderTypes. Using 1000 for this example. */\r\n    address admin; /** @dev the idea of 'admin' will need to be expanded to become an admin for the IntelPropertyFile: whoever uploads ia the admin for that _nftID */\r\n    \r\n\t// temp for debugging\r\n\t//event msgs(string _msg, address _addr);\r\n\t//event msgsWithNums(string _msg, uint _number);\r\n\r\n\t/* TODO\r\n\t * 1. Normal ERC20 transfer functions may need to be overridden so they don't work from external.\r\n\t * 2. Do we need a fallback func? How should this contract revieve funds (being part of what will \r\n\t * probably be a layer 2 solution). ??\r\n\t * 3. Some kind of escrow feature or status may be needed (to hold tokens for a right's holder \r\n\t * before their account exists, should an admin set up the contract before getting all parties\r\n\t * onboarded).\r\n\t * 4. 'onlyOwner' needs to be replaced with a whitelist of (probably) the owner + an 'admin' for\r\n\t * the tokens associated with the specific nftID.\r\n\t * \r\n\t*/\r\n    constructor() ERC20(\"IntellectualPropertyToken\", \"IPT\") { \r\n\t\t// when this gets called, will it be the person's addr who is minting or the parent contract's addr?\r\n\t\tadmin = msg.sender;\r\n\t}\r\n    \r\n    struct IntelPropertyFile {\r\n\t\taddress admin;\r\n        Multihash ipfsHash;\r\n\t\tbool active;\r\n\t\tbool finalized;\r\n\t\tRightsHolderSpec[] rightsHolderSpecs; \r\n\t}\t\r\n\tstruct RightsHolderSpec {\r\n\t\tuint agreementID;\r\n\t\taddress rightsHolderAddr; /* this functions as the original rightsHolder account, regardless of who owns the token */ \r\n\t\tuint16 rightsHolderType; /* see IntelPropertyToken.test.js - for example: ARTIST=0, WRITER=1, PUBLISHER=2, MASTERRIGHTSHOLDER=3 */ \r\n\t\tuint tokensHeld; /* this possibly won't reflect secondary market sales buy-backs - need to research */ \r\n\t}\t\r\n\tstruct Multihash {\r\n\t\tbytes32 digest;\r\n\t\tuint8 hashFunction;\r\n\t\tuint8 size;\r\n  \t}\r\n    \r\n\tevent ipfsHashSetToNFT (uint indexed nftID, bytes32 digest, uint8 hashFunction, uint8 size);\r\n\r\n\t/** @notice  */\r\n\tfunction addIntelPropertyFile(uint _nftID, bytes32 _digest, uint8 _hashFunction, uint8 _size, address[] calldata _rightsHolders, uint16[] calldata _rightsHolderTypes, uint _agreementID) external onlyOwner {\r\n\t\t/** @dev requirement of onlyOwner is temp - in production, anyone who uploads will become an admin for that intelPropertyFile */\t\t\r\n\t\trequire(_rightsHolders.length == _rightsHolderTypes.length, 'length of rightsHolders must match the length of rightsHolderTypes submitted');\r\n\t\t\r\n\t\t/** IMP: there is nothing to keep the same file from being tracked as an NFT multiple times. This could cause \r\n\t\t* issues, but may resolve itself in that everything is onchain and transparent in the case of a nefarious actor. \r\n\t\t* Further, plays/views of a file that exists as more than 1 NFT will simply be split between the NFTs in the case\r\n\t\t* of an honest, mistaken re-upload. */\r\n\r\n\t\t/** @dev using the incoming _nftID is needed for the various contracts to coordinate */\r\n\t\t(IntelPropertyFile storage sdFile) = (intelPropertyFile[_nftID]);\r\n\t\tsdFile.admin = admin;\t\t\r\n\t\t\r\n\t\t(Multihash storage entry) = (sdFile.ipfsHash);\r\n\t\tentry.digest = _digest;\r\n\t\tentry.hashFunction = _hashFunction;\r\n\t\tentry.size = _size;\r\n\t\temit ipfsHashSetToNFT(_nftID, _digest, _hashFunction, _size);\t\t\r\n\t\t\r\n\t\tfor (uint i = 0; i < _rightsHolders.length; i++) {\r\n\t\t\t/** @dev RightsHolderSpec(address, rightsHolderType, tokensHeld) */\r\n\t\t\t(RightsHolderSpec memory rhSpec) = (RightsHolderSpec(_agreementID, _rightsHolders[i], _rightsHolderTypes[i], 0));\r\n\t\t\tsdFile.rightsHolderSpecs.push(rhSpec);\r\n\t\t}\r\n\t\ttotalIntelPropertyFiles++; \r\n\t\tmintTokensForIntelPropertyFile(_nftID);\r\n\t}\r\n\t\r\n\t/** \r\n\t* @notice handles minting of the tokens specific to the IntelProperty file's ID supplied. \r\n\t  * 'intelPropertyTokenLimit' determines the # of tokens and this is divided by the # \r\n\t  * of rightsHolders assigned to the IntelProperty file. Any remainder (beyond the evenly\r\n\t  * split # of tokens between rightsHolders) tokens will be assigned to the first \r\n\t  * rightsHolder account in the list. Example: 1000 tokens / 3 = 334, 333, 333\r\n\t*/\r\n\tfunction mintTokensForIntelPropertyFile(uint _nftID) internal {\t\t\r\n\t\t(IntelPropertyFile storage sdFile) = (intelPropertyFile[_nftID]);\r\n\t\t/** @dev we need to account for decimals when dividing tokens between rightsHolders. \r\n\t\t  * IMPORTANT: the first rightsHolder listed will receive the extra tokens after division */\r\n\t\t(uint modu) = (intelPropertyTokenLimit % sdFile.rightsHolderSpecs.length);\r\n\t\t(uint numTokens) = (intelPropertyTokenLimit / sdFile.rightsHolderSpecs.length);\r\n\t\tfor (uint16 i = 0; i < sdFile.rightsHolderSpecs.length; i++) {\r\n\t\t\tuint amount = (i == 0 && modu > 0) ? numTokens + modu : numTokens;\r\n\t\t\t(RightsHolderSpec storage rhSpec) = (sdFile.rightsHolderSpecs[i]);\r\n\t\t\t_mint(rhSpec.rightsHolderAddr, amount);\r\n\t\t\trhSpec.tokensHeld = rhSpec.tokensHeld + amount;\r\n\t\t}\r\n\t}\r\n\t\r\n\t/** @notice controls the transfer of rightsHolder's tokens specific to the IntelProperty file ID supplied  */\r\n\tfunction transferRightsHolderTokens(uint _nftID, address _rightsHolder, address _to, uint _amount) public returns (bool) {\r\n\t\t/** @dev since solidity 0.7.0, you can't create a mapping inside of a struct, therefore we need to iterate\r\n\t\t  * thru the rightsHolders, but there aren't many \r\n\t\t*/\r\n\t\t(IntelPropertyFile storage sdFile) = (intelPropertyFile[_nftID]);\r\n\t\tfor (uint16 i = 0; i < sdFile.rightsHolderSpecs.length; i++) {\r\n\t\t\t(RightsHolderSpec storage rhSpec) = (sdFile.rightsHolderSpecs[i]);\r\n\t\t\tif (rhSpec.rightsHolderAddr == _rightsHolder) {\r\n\t\t\t\trequire(msg.sender == _rightsHolder || msg.sender == admin, \"msg.sender is not authorized.\");\r\n\t\t\t\trequire(rhSpec.tokensHeld >= _amount, \"RightsHolder does not have enough tokens.\");\r\n\t\t\t\ttransferFrom(_rightsHolder, _to, _amount);\r\n\t\t\t\treturn true;\r\n\t\t\t}\r\n\t\t}\t\t\r\n\t}\r\n\r\n\t/** @notice returns the IPFS multihash address for the IntelProperty file's content */\r\n\tfunction retrieveIntelPropertyFile(uint _nftID) public view returns(Multihash memory) {\r\n\t\t(IntelPropertyFile storage sdFile) = (intelPropertyFile[_nftID]);\r\n\t\treturn sdFile.ipfsHash;\r\n\t}\r\n\t\r\n\t/** @notice returns the rightsHolder information for the IntelProperty file requested */\r\n\tfunction retrieveRightsHolderInfo(uint _nftID) external view returns(RightsHolderSpec[] memory) {\r\n\t\t(IntelPropertyFile storage sdFile) = (intelPropertyFile[_nftID]);\r\n\t\treturn sdFile.rightsHolderSpecs;\r\n\t}\r\n\r\n\t/** @notice returns total number of IntelProperty files in the contract */\r\n\tfunction numberOfIntelPropertyFiles() public view returns(uint totalEntries) {\r\n\t\treturn totalIntelPropertyFiles;\r\n\t}\r\n\r\n\t/** @notice sets the IntelProperty file's active flag, used for controling visibility of the contents */\r\n\tfunction setActiveFlag(uint _nftID, bool _active) external onlyOwner {\r\n\t\t(IntelPropertyFile storage sdFile) = (intelPropertyFile[_nftID]);\r\n\t\tsdFile.active = _active;\r\n\t}\r\n\t/** @notice retrieves the IntelProperty file's active flag, used for controling visibility of the contents */\r\n\tfunction getActiveFlag(uint _nftID) external returns(bool) {\r\n\t\t(IntelPropertyFile storage sdFile) = (intelPropertyFile[_nftID]);\r\n\t\treturn sdFile.active;\r\n\t}\r\n\r\n\t/** @notice sets the IntelProperty file's status to Finalized, limiting what can be changed \r\n\t  * @dev this may turn out to not be needed but is being left here for now\r\n\t*/\r\n\tfunction setFinalizedFlag(uint _nftID) external onlyOwner {\r\n\t\t(IntelPropertyFile storage sdFile) = (intelPropertyFile[_nftID]);\r\n\t\tsdFile.finalized = true;\r\n\t}\r\n\t/** @notice returns Finalized status for this IntelProperty file */\r\n\tfunction getFinalizedFlag(uint _nftID) external returns(bool) {\r\n\t\t(IntelPropertyFile storage sdFile) = (intelPropertyFile[_nftID]);\r\n\t\treturn sdFile.finalized;\r\n\t}\r\n}",
  "sourcePath": "C:/devroot/Solidity/learning/IntellectualPropertyToken/contracts/IntelPropertyTokens.sol",
  "compiler": {
    "name": "solc",
    "version": "0.8.0+commit.c7dfd78e.Emscripten.clang"
  },
  "schemaVersion": "3.3.4",
  "updatedAt": "2021-06-06T04:34:41.347Z",
  "networkType": "ethereum",
  "devdoc": {
    "kind": "dev",
    "methods": {
      "allowance(address,address)": {
        "details": "See {IERC20-allowance}."
      },
      "approve(address,uint256)": {
        "details": "See {IERC20-approve}. Requirements: - `spender` cannot be the zero address."
      },
      "balanceOf(address)": {
        "details": "See {IERC20-balanceOf}."
      },
      "constructor": {
        "details": "the idea of 'admin' will need to be expanded to become an admin for the IntelPropertyFile: whoever uploads ia the admin for that _nftID "
      },
      "decimals()": {
        "details": "Returns the number of decimals used to get its user representation. For example, if `decimals` equals `2`, a balance of `505` tokens should be displayed to a user as `5,05` (`505 / 10 ** 2`). Tokens usually opt for a value of 18, imitating the relationship between Ether and Wei. This is the value {ERC20} uses, unless this function is overridden; NOTE: This information is only used for _display_ purposes: it in no way affects any of the arithmetic of the contract, including {IERC20-balanceOf} and {IERC20-transfer}."
      },
      "decreaseAllowance(address,uint256)": {
        "details": "Atomically decreases the allowance granted to `spender` by the caller. This is an alternative to {approve} that can be used as a mitigation for problems described in {IERC20-approve}. Emits an {Approval} event indicating the updated allowance. Requirements: - `spender` cannot be the zero address. - `spender` must have allowance for the caller of at least `subtractedValue`."
      },
      "increaseAllowance(address,uint256)": {
        "details": "Atomically increases the allowance granted to `spender` by the caller. This is an alternative to {approve} that can be used as a mitigation for problems described in {IERC20-approve}. Emits an {Approval} event indicating the updated allowance. Requirements: - `spender` cannot be the zero address."
      },
      "name()": {
        "details": "Returns the name of the token."
      },
      "owner()": {
        "details": "Returns the address of the current owner."
      },
      "renounceOwnership()": {
        "details": "Leaves the contract without owner. It will not be possible to call `onlyOwner` functions anymore. Can only be called by the current owner. NOTE: Renouncing ownership will leave the contract without an owner, thereby removing any functionality that is only available to the owner."
      },
      "setFinalizedFlag(uint256)": {
        "details": "this may turn out to not be needed but is being left here for now"
      },
      "symbol()": {
        "details": "Returns the symbol of the token, usually a shorter version of the name."
      },
      "totalSupply()": {
        "details": "See {IERC20-totalSupply}."
      },
      "transfer(address,uint256)": {
        "details": "See {IERC20-transfer}. Requirements: - `recipient` cannot be the zero address. - the caller must have a balance of at least `amount`."
      },
      "transferFrom(address,address,uint256)": {
        "details": "See {IERC20-transferFrom}. Emits an {Approval} event indicating the updated allowance. This is not required by the EIP. See the note at the beginning of {ERC20}. Requirements: - `sender` and `recipient` cannot be the zero address. - `sender` must have a balance of at least `amount`. - the caller must have allowance for ``sender``'s tokens of at least `amount`."
      },
      "transferOwnership(address)": {
        "details": "Transfers ownership of the contract to a new account (`newOwner`). Can only be called by the current owner."
      }
    },
    "stateVariables": {
      "admin": {
        "details": "should probably be 1000 (or 10000) x # of rightsHolderTypes. Using 1000 for this example. "
      },
      "intelPropertyTokenLimit": {
        "details": "total of all IntelProperty files in the contract "
      },
      "totalIntelPropertyFiles": {
        "details": "nftIndex => intelPropertyFile (nftIndex => Mulithash is covered by this mapping)  "
      }
    },
    "version": 1
  },
  "userdoc": {
    "kind": "user",
    "methods": {
      "getActiveFlag(uint256)": {
        "notice": "retrieves the IntelProperty file's active flag, used for controling visibility of the contents "
      },
      "getFinalizedFlag(uint256)": {
        "notice": "returns Finalized status for this IntelProperty file "
      },
      "numberOfIntelPropertyFiles()": {
        "notice": "returns total number of IntelProperty files in the contract "
      },
      "retrieveIntelPropertyFile(uint256)": {
        "notice": "returns the IPFS multihash address for the IntelProperty file's content "
      },
      "retrieveRightsHolderInfo(uint256)": {
        "notice": "returns the rightsHolder information for the IntelProperty file requested "
      },
      "setActiveFlag(uint256,bool)": {
        "notice": "sets the IntelProperty file's active flag, used for controling visibility of the contents "
      },
      "setFinalizedFlag(uint256)": {
        "notice": "sets the IntelProperty file's status to Finalized, limiting what can be changed "
      },
      "transferRightsHolderTokens(uint256,address,address,uint256)": {
        "notice": "controls the transfer of rightsHolder's tokens specific to the IntelProperty file ID supplied  "
      }
    },
    "version": 1
  }
}