{
  "contractName": "IntelPropertyAgreement",
  "abi": [
    {
      "anonymous": false,
      "inputs": [
        {
          "indexed": true,
          "internalType": "address",
          "name": "previousOwner",
          "type": "address"
        },
        {
          "indexed": true,
          "internalType": "address",
          "name": "newOwner",
          "type": "address"
        }
      ],
      "name": "OwnershipTransferred",
      "type": "event"
    },
    {
      "anonymous": false,
      "inputs": [
        {
          "indexed": true,
          "internalType": "uint256",
          "name": "agreementID",
          "type": "uint256"
        },
        {
          "indexed": false,
          "internalType": "bytes32",
          "name": "digest",
          "type": "bytes32"
        },
        {
          "indexed": false,
          "internalType": "uint8",
          "name": "hashFunction",
          "type": "uint8"
        },
        {
          "indexed": false,
          "internalType": "uint8",
          "name": "size",
          "type": "uint8"
        }
      ],
      "name": "ipfsHashSetToNFT",
      "type": "event"
    },
    {
      "inputs": [],
      "name": "owner",
      "outputs": [
        {
          "internalType": "address",
          "name": "",
          "type": "address"
        }
      ],
      "stateMutability": "view",
      "type": "function",
      "constant": true
    },
    {
      "inputs": [],
      "name": "renounceOwnership",
      "outputs": [],
      "stateMutability": "nonpayable",
      "type": "function"
    },
    {
      "inputs": [
        {
          "internalType": "address",
          "name": "newOwner",
          "type": "address"
        }
      ],
      "name": "transferOwnership",
      "outputs": [],
      "stateMutability": "nonpayable",
      "type": "function"
    },
    {
      "inputs": [
        {
          "internalType": "bytes32",
          "name": "_digest",
          "type": "bytes32"
        },
        {
          "internalType": "uint8",
          "name": "_hashFunction",
          "type": "uint8"
        },
        {
          "internalType": "uint8",
          "name": "_size",
          "type": "uint8"
        }
      ],
      "name": "addAgreement",
      "outputs": [],
      "stateMutability": "nonpayable",
      "type": "function"
    },
    {
      "inputs": [
        {
          "internalType": "uint256",
          "name": "_agreementID",
          "type": "uint256"
        }
      ],
      "name": "retrieveAgreement",
      "outputs": [
        {
          "components": [
            {
              "internalType": "bytes32",
              "name": "digest",
              "type": "bytes32"
            },
            {
              "internalType": "uint8",
              "name": "hashFunction",
              "type": "uint8"
            },
            {
              "internalType": "uint8",
              "name": "size",
              "type": "uint8"
            }
          ],
          "internalType": "struct IntelPropertyAgreement.Multihash",
          "name": "",
          "type": "tuple"
        }
      ],
      "stateMutability": "view",
      "type": "function",
      "constant": true
    },
    {
      "inputs": [],
      "name": "getTotalAgreements",
      "outputs": [
        {
          "internalType": "uint256",
          "name": "",
          "type": "uint256"
        }
      ],
      "stateMutability": "view",
      "type": "function",
      "constant": true
    }
  ],
  "bytecode": "0x608060405234801561001057600080fd5b5060006100216100c460201b60201c565b9050806000806101000a81548173ffffffffffffffffffffffffffffffffffffffff021916908373ffffffffffffffffffffffffffffffffffffffff1602179055508073ffffffffffffffffffffffffffffffffffffffff16600073ffffffffffffffffffffffffffffffffffffffff167f8be0079c531659141344cd1fd0a4f28419497f9722a3daafe3b4186f6b6457e060405160405180910390a3506100cc565b600033905090565b610a75806100db6000396000f3fe608060405234801561001057600080fd5b50600436106100625760003560e01c8063715018a6146100675780638da5cb5b14610071578063b4a33d531461008f578063bd933d1b146100ab578063c32f5e95146100c9578063f2fde38b146100f9575b600080fd5b61006f610115565b005b61007961024f565b604051610086919061083f565b60405180910390f35b6100a960048036038101906100a49190610685565b610278565b005b6100b36103ac565b6040516100c091906108ec565b60405180910390f35b6100e360048036038101906100de91906106d4565b6103b6565b6040516100f091906108d1565b60405180910390f35b610113600480360381019061010e919061065c565b61042d565b005b61011d6105d6565b73ffffffffffffffffffffffffffffffffffffffff1661013b61024f565b73ffffffffffffffffffffffffffffffffffffffff1614610191576040517f08c379a0000000000000000000000000000000000000000000000000000000008152600401610188906108b1565b60405180910390fd5b600073ffffffffffffffffffffffffffffffffffffffff1660008054906101000a900473ffffffffffffffffffffffffffffffffffffffff1673ffffffffffffffffffffffffffffffffffffffff167f8be0079c531659141344cd1fd0a4f28419497f9722a3daafe3b4186f6b6457e060405160405180910390a360008060006101000a81548173ffffffffffffffffffffffffffffffffffffffff021916908373ffffffffffffffffffffffffffffffffffffffff160217905550565b60008060009054906101000a900473ffffffffffffffffffffffffffffffffffffffff16905090565b6102806105d6565b73ffffffffffffffffffffffffffffffffffffffff1661029e61024f565b73ffffffffffffffffffffffffffffffffffffffff16146102f4576040517f08c379a00000000000000000000000000000000000000000000000000000000081526004016102eb906108b1565b60405180910390fd5b60006001600060025481526020019081526020016000209050838160000181905550828160010160006101000a81548160ff021916908360ff160217905550818160010160016101000a81548160ff021916908360ff1602179055506002547fc7061d9ef2bf5e27eae49fa823eef41bc416fc9df5b7d50b79e234943b93d0218585856040516103869392919061085a565b60405180910390a2600260008154809291906103a19061096b565b919050555050505050565b6000600254905090565b6103be6105de565b600060016000848152602001908152602001600020905080604051806060016040529081600082015481526020016001820160009054906101000a900460ff1660ff1660ff1681526020016001820160019054906101000a900460ff1660ff1660ff1681525050915050919050565b6104356105d6565b73ffffffffffffffffffffffffffffffffffffffff1661045361024f565b73ffffffffffffffffffffffffffffffffffffffff16146104a9576040517f08c379a00000000000000000000000000000000000000000000000000000000081526004016104a0906108b1565b60405180910390fd5b600073ffffffffffffffffffffffffffffffffffffffff168173ffffffffffffffffffffffffffffffffffffffff161415610519576040517f08c379a000000000000000000000000000000000000000000000000000000000815260040161051090610891565b60405180910390fd5b8073ffffffffffffffffffffffffffffffffffffffff1660008054906101000a900473ffffffffffffffffffffffffffffffffffffffff1673ffffffffffffffffffffffffffffffffffffffff167f8be0079c531659141344cd1fd0a4f28419497f9722a3daafe3b4186f6b6457e060405160405180910390a3806000806101000a81548173ffffffffffffffffffffffffffffffffffffffff021916908373ffffffffffffffffffffffffffffffffffffffff16021790555050565b600033905090565b604051806060016040528060008019168152602001600060ff168152602001600060ff1681525090565b600081359050610617816109e3565b92915050565b60008135905061062c816109fa565b92915050565b60008135905061064181610a11565b92915050565b60008135905061065681610a28565b92915050565b60006020828403121561066e57600080fd5b600061067c84828501610608565b91505092915050565b60008060006060848603121561069a57600080fd5b60006106a88682870161061d565b93505060206106b986828701610647565b92505060406106ca86828701610647565b9150509250925092565b6000602082840312156106e657600080fd5b60006106f484828501610632565b91505092915050565b61070681610918565b82525050565b6107158161092a565b82525050565b6107248161092a565b82525050565b6000610737602683610907565b91507f4f776e61626c653a206e6577206f776e657220697320746865207a65726f206160008301527f64647265737300000000000000000000000000000000000000000000000000006020830152604082019050919050565b600061079d602083610907565b91507f4f776e61626c653a2063616c6c6572206973206e6f7420746865206f776e65726000830152602082019050919050565b6060820160008201516107e6600085018261070c565b5060208201516107f96020850182610821565b50604082015161080c6040850182610821565b50505050565b61081b81610954565b82525050565b61082a8161095e565b82525050565b6108398161095e565b82525050565b600060208201905061085460008301846106fd565b92915050565b600060608201905061086f600083018661071b565b61087c6020830185610830565b6108896040830184610830565b949350505050565b600060208201905081810360008301526108aa8161072a565b9050919050565b600060208201905081810360008301526108ca81610790565b9050919050565b60006060820190506108e660008301846107d0565b92915050565b60006020820190506109016000830184610812565b92915050565b600082825260208201905092915050565b600061092382610934565b9050919050565b6000819050919050565b600073ffffffffffffffffffffffffffffffffffffffff82169050919050565b6000819050919050565b600060ff82169050919050565b600061097682610954565b91507fffffffffffffffffffffffffffffffffffffffffffffffffffffffffffffffff8214156109a9576109a86109b4565b5b600182019050919050565b7f4e487b7100000000000000000000000000000000000000000000000000000000600052601160045260246000fd5b6109ec81610918565b81146109f757600080fd5b50565b610a038161092a565b8114610a0e57600080fd5b50565b610a1a81610954565b8114610a2557600080fd5b50565b610a318161095e565b8114610a3c57600080fd5b5056fea264697066735822122074f94d082e1e7e0fd793690be0403c23478215d138c239de22cc3909c4196f0764736f6c63430008000033",
  "immutableReferences": {},
  "source": "// SPDX-License-Identifier: MIT\r\npragma solidity ^0.8.0;\r\n\r\nimport \"@openzeppelin/contracts/access/Ownable.sol\";\r\n\r\n/** @notice This contract is extremely simple. It adds an IPFS Multihash (by it's 3 distinct parts) to a contract.\r\n  * @dev It's dependent on a js file (see ../util/multihash.js or you can use an equiv.) taking the full IPFS hash \r\n  * string and parsing it into it's respective parts:\r\n  * bytes32 digest\r\n  * uint8 hashFunction\r\n  * uint8 size\r\n  * Parsing in this way allows the hash to be stored onchain in an efficient manner. Note that this contract could \r\n  * easily be used for saving any IPFS hash address to a contract that a dApp needs. Here, we're using it for storing \r\n  * an Agreement file (a signed pdf, for instance) that all parties to an Intellectual Property NFT + an Intellectual \r\n  * Property RightsHolder ERC20 Token combination have agreed upon. It allows a simple index to be referenced in \r\n  * other contracts.\r\n*/\r\ncontract IntelPropertyAgreement is Ownable {\r\n\r\n\tstruct Multihash {\r\n\t\tbytes32 digest;\r\n\t\tuint8 hashFunction;\r\n\t\tuint8 size;\r\n  \t}\r\n    \r\n    mapping (uint => Multihash) agreements;\r\n    uint totalAgreements;\r\n    \r\n\tevent ipfsHashSetToNFT (uint indexed agreementID, bytes32 digest, uint8 hashFunction, uint8 size);\r\n\r\n\t/** @notice adds a parsed IPFS hash file to the contract */\r\n\tfunction addAgreement(bytes32 _digest, uint8 _hashFunction, uint8 _size) external onlyOwner {\r\n\t\t(Multihash storage entry) = (agreements[totalAgreements]);\r\n\t\tentry.digest = _digest;\r\n\t\tentry.hashFunction = _hashFunction;\r\n\t\tentry.size = _size;\r\n        emit ipfsHashSetToNFT(totalAgreements, _digest, _hashFunction, _size);        \r\n        totalAgreements++; // increment to reset index for the next incoming agreement\r\n    }\r\n\r\n\t/** @notice returns an IPFS hash by it's ID number. Note that the Multihash will need to be re-combined, \r\n\t  * (see ../util/multihash.js). */\r\n    function retrieveAgreement(uint _agreementID)  public view returns(Multihash memory) {\r\n\t\t(Multihash storage agreement) = (agreements[_agreementID]);\r\n\t\treturn agreement;\r\n    }\r\n\r\n\t/** @notice returns the total number of agreements present in the contract */\r\n\tfunction getTotalAgreements() public view returns(uint) {\r\n\t\treturn totalAgreements;\r\n\t}\r\n}",
  "sourcePath": "C:/devroot/Solidity/learning/IntellectualPropertyToken/contracts/IntelPropertyAgreement.sol",
  "compiler": {
    "name": "solc",
    "version": "0.8.0+commit.c7dfd78e.Emscripten.clang"
  },
  "schemaVersion": "3.3.4",
  "updatedAt": "2021-06-06T04:34:41.365Z",
  "networkType": "ethereum",
  "devdoc": {
    "details": "It's dependent on a js file (see ../util/multihash.js or you can use an equiv.) taking the full IPFS hash  string and parsing it into it's respective parts: bytes32 digest uint8 hashFunction uint8 size Parsing in this way allows the hash to be stored onchain in an efficient manner. Note that this contract could  easily be used for saving any IPFS hash address to a contract that a dApp needs. Here, we're using it for storing  an Agreement file (a signed pdf, for instance) that all parties to an Intellectual Property NFT + an Intellectual  Property RightsHolder ERC20 Token combination have agreed upon. It allows a simple index to be referenced in  other contracts.",
    "kind": "dev",
    "methods": {
      "owner()": {
        "details": "Returns the address of the current owner."
      },
      "renounceOwnership()": {
        "details": "Leaves the contract without owner. It will not be possible to call `onlyOwner` functions anymore. Can only be called by the current owner. NOTE: Renouncing ownership will leave the contract without an owner, thereby removing any functionality that is only available to the owner."
      },
      "transferOwnership(address)": {
        "details": "Transfers ownership of the contract to a new account (`newOwner`). Can only be called by the current owner."
      }
    },
    "version": 1
  },
  "userdoc": {
    "kind": "user",
    "methods": {
      "addAgreement(bytes32,uint8,uint8)": {
        "notice": "adds a parsed IPFS hash file to the contract "
      },
      "getTotalAgreements()": {
        "notice": "returns the total number of agreements present in the contract "
      },
      "retrieveAgreement(uint256)": {
        "notice": "returns an IPFS hash by it's ID number. Note that the Multihash will need to be re-combined,  (see ../util/multihash.js). "
      }
    },
    "notice": "This contract is extremely simple. It adds an IPFS Multihash (by it's 3 distinct parts) to a contract.",
    "version": 1
  }
}