{
  "contractName": "IntelPropertyNFT",
  "abi": [
    {
      "inputs": [],
      "stateMutability": "nonpayable",
      "type": "constructor"
    },
    {
      "anonymous": false,
      "inputs": [
        {
          "indexed": true,
          "internalType": "address",
          "name": "owner",
          "type": "address"
        },
        {
          "indexed": true,
          "internalType": "address",
          "name": "approved",
          "type": "address"
        },
        {
          "indexed": true,
          "internalType": "uint256",
          "name": "tokenId",
          "type": "uint256"
        }
      ],
      "name": "Approval",
      "type": "event"
    },
    {
      "anonymous": false,
      "inputs": [
        {
          "indexed": true,
          "internalType": "address",
          "name": "owner",
          "type": "address"
        },
        {
          "indexed": true,
          "internalType": "address",
          "name": "operator",
          "type": "address"
        },
        {
          "indexed": false,
          "internalType": "bool",
          "name": "approved",
          "type": "bool"
        }
      ],
      "name": "ApprovalForAll",
      "type": "event"
    },
    {
      "anonymous": false,
      "inputs": [
        {
          "indexed": true,
          "internalType": "address",
          "name": "previousOwner",
          "type": "address"
        },
        {
          "indexed": true,
          "internalType": "address",
          "name": "newOwner",
          "type": "address"
        }
      ],
      "name": "OwnershipTransferred",
      "type": "event"
    },
    {
      "anonymous": false,
      "inputs": [
        {
          "indexed": true,
          "internalType": "address",
          "name": "from",
          "type": "address"
        },
        {
          "indexed": true,
          "internalType": "address",
          "name": "to",
          "type": "address"
        },
        {
          "indexed": true,
          "internalType": "uint256",
          "name": "tokenId",
          "type": "uint256"
        }
      ],
      "name": "Transfer",
      "type": "event"
    },
    {
      "anonymous": false,
      "inputs": [
        {
          "indexed": true,
          "internalType": "uint256",
          "name": "nftID",
          "type": "uint256"
        },
        {
          "components": [
            {
              "internalType": "address",
              "name": "admin",
              "type": "address"
            },
            {
              "internalType": "bytes32",
              "name": "name",
              "type": "bytes32"
            },
            {
              "internalType": "bytes32",
              "name": "artist",
              "type": "bytes32"
            },
            {
              "internalType": "bytes32",
              "name": "collection",
              "type": "bytes32"
            },
            {
              "internalType": "uint256[]",
              "name": "playsByDate",
              "type": "uint256[]"
            },
            {
              "components": [
                {
                  "internalType": "bytes32",
                  "name": "digest",
                  "type": "bytes32"
                },
                {
                  "internalType": "uint8",
                  "name": "hashFunction",
                  "type": "uint8"
                },
                {
                  "internalType": "uint8",
                  "name": "size",
                  "type": "uint8"
                }
              ],
              "internalType": "struct IntelPropertyNFT.Multihash",
              "name": "thumbnail",
              "type": "tuple"
            }
          ],
          "indexed": false,
          "internalType": "struct IntelPropertyNFT.NFTSpec",
          "name": "nftSpec",
          "type": "tuple"
        }
      ],
      "name": "dumpNFTInfo",
      "type": "event"
    },
    {
      "anonymous": false,
      "inputs": [
        {
          "indexed": true,
          "internalType": "uint256",
          "name": "nftID",
          "type": "uint256"
        },
        {
          "indexed": false,
          "internalType": "uint256[]",
          "name": "playDates",
          "type": "uint256[]"
        }
      ],
      "name": "dumpPlayReport",
      "type": "event"
    },
    {
      "anonymous": false,
      "inputs": [
        {
          "indexed": true,
          "internalType": "uint256",
          "name": "nftID",
          "type": "uint256"
        },
        {
          "indexed": false,
          "internalType": "string",
          "name": "hashType",
          "type": "string"
        },
        {
          "indexed": false,
          "internalType": "bytes32",
          "name": "digest",
          "type": "bytes32"
        },
        {
          "indexed": false,
          "internalType": "uint8",
          "name": "hashFunction",
          "type": "uint8"
        },
        {
          "indexed": false,
          "internalType": "uint8",
          "name": "size",
          "type": "uint8"
        }
      ],
      "name": "ipfsHashSetToNFT",
      "type": "event"
    },
    {
      "inputs": [
        {
          "internalType": "address",
          "name": "to",
          "type": "address"
        },
        {
          "internalType": "uint256",
          "name": "tokenId",
          "type": "uint256"
        }
      ],
      "name": "approve",
      "outputs": [],
      "stateMutability": "nonpayable",
      "type": "function"
    },
    {
      "inputs": [
        {
          "internalType": "address",
          "name": "owner",
          "type": "address"
        }
      ],
      "name": "balanceOf",
      "outputs": [
        {
          "internalType": "uint256",
          "name": "",
          "type": "uint256"
        }
      ],
      "stateMutability": "view",
      "type": "function",
      "constant": true
    },
    {
      "inputs": [
        {
          "internalType": "uint256",
          "name": "tokenId",
          "type": "uint256"
        }
      ],
      "name": "getApproved",
      "outputs": [
        {
          "internalType": "address",
          "name": "",
          "type": "address"
        }
      ],
      "stateMutability": "view",
      "type": "function",
      "constant": true
    },
    {
      "inputs": [
        {
          "internalType": "address",
          "name": "owner",
          "type": "address"
        },
        {
          "internalType": "address",
          "name": "operator",
          "type": "address"
        }
      ],
      "name": "isApprovedForAll",
      "outputs": [
        {
          "internalType": "bool",
          "name": "",
          "type": "bool"
        }
      ],
      "stateMutability": "view",
      "type": "function",
      "constant": true
    },
    {
      "inputs": [],
      "name": "name",
      "outputs": [
        {
          "internalType": "string",
          "name": "",
          "type": "string"
        }
      ],
      "stateMutability": "view",
      "type": "function",
      "constant": true
    },
    {
      "inputs": [],
      "name": "owner",
      "outputs": [
        {
          "internalType": "address",
          "name": "",
          "type": "address"
        }
      ],
      "stateMutability": "view",
      "type": "function",
      "constant": true
    },
    {
      "inputs": [
        {
          "internalType": "uint256",
          "name": "tokenId",
          "type": "uint256"
        }
      ],
      "name": "ownerOf",
      "outputs": [
        {
          "internalType": "address",
          "name": "",
          "type": "address"
        }
      ],
      "stateMutability": "view",
      "type": "function",
      "constant": true
    },
    {
      "inputs": [],
      "name": "renounceOwnership",
      "outputs": [],
      "stateMutability": "nonpayable",
      "type": "function"
    },
    {
      "inputs": [
        {
          "internalType": "address",
          "name": "from",
          "type": "address"
        },
        {
          "internalType": "address",
          "name": "to",
          "type": "address"
        },
        {
          "internalType": "uint256",
          "name": "tokenId",
          "type": "uint256"
        }
      ],
      "name": "safeTransferFrom",
      "outputs": [],
      "stateMutability": "nonpayable",
      "type": "function"
    },
    {
      "inputs": [
        {
          "internalType": "address",
          "name": "from",
          "type": "address"
        },
        {
          "internalType": "address",
          "name": "to",
          "type": "address"
        },
        {
          "internalType": "uint256",
          "name": "tokenId",
          "type": "uint256"
        },
        {
          "internalType": "bytes",
          "name": "_data",
          "type": "bytes"
        }
      ],
      "name": "safeTransferFrom",
      "outputs": [],
      "stateMutability": "nonpayable",
      "type": "function"
    },
    {
      "inputs": [
        {
          "internalType": "address",
          "name": "operator",
          "type": "address"
        },
        {
          "internalType": "bool",
          "name": "approved",
          "type": "bool"
        }
      ],
      "name": "setApprovalForAll",
      "outputs": [],
      "stateMutability": "nonpayable",
      "type": "function"
    },
    {
      "inputs": [
        {
          "internalType": "bytes4",
          "name": "interfaceId",
          "type": "bytes4"
        }
      ],
      "name": "supportsInterface",
      "outputs": [
        {
          "internalType": "bool",
          "name": "",
          "type": "bool"
        }
      ],
      "stateMutability": "view",
      "type": "function",
      "constant": true
    },
    {
      "inputs": [],
      "name": "symbol",
      "outputs": [
        {
          "internalType": "string",
          "name": "",
          "type": "string"
        }
      ],
      "stateMutability": "view",
      "type": "function",
      "constant": true
    },
    {
      "inputs": [
        {
          "internalType": "uint256",
          "name": "index",
          "type": "uint256"
        }
      ],
      "name": "tokenByIndex",
      "outputs": [
        {
          "internalType": "uint256",
          "name": "",
          "type": "uint256"
        }
      ],
      "stateMutability": "view",
      "type": "function",
      "constant": true
    },
    {
      "inputs": [
        {
          "internalType": "address",
          "name": "owner",
          "type": "address"
        },
        {
          "internalType": "uint256",
          "name": "index",
          "type": "uint256"
        }
      ],
      "name": "tokenOfOwnerByIndex",
      "outputs": [
        {
          "internalType": "uint256",
          "name": "",
          "type": "uint256"
        }
      ],
      "stateMutability": "view",
      "type": "function",
      "constant": true
    },
    {
      "inputs": [
        {
          "internalType": "uint256",
          "name": "tokenId",
          "type": "uint256"
        }
      ],
      "name": "tokenURI",
      "outputs": [
        {
          "internalType": "string",
          "name": "",
          "type": "string"
        }
      ],
      "stateMutability": "view",
      "type": "function",
      "constant": true
    },
    {
      "inputs": [],
      "name": "totalSupply",
      "outputs": [
        {
          "internalType": "uint256",
          "name": "",
          "type": "uint256"
        }
      ],
      "stateMutability": "view",
      "type": "function",
      "constant": true
    },
    {
      "inputs": [
        {
          "internalType": "address",
          "name": "from",
          "type": "address"
        },
        {
          "internalType": "address",
          "name": "to",
          "type": "address"
        },
        {
          "internalType": "uint256",
          "name": "tokenId",
          "type": "uint256"
        }
      ],
      "name": "transferFrom",
      "outputs": [],
      "stateMutability": "nonpayable",
      "type": "function"
    },
    {
      "inputs": [
        {
          "internalType": "address",
          "name": "newOwner",
          "type": "address"
        }
      ],
      "name": "transferOwnership",
      "outputs": [],
      "stateMutability": "nonpayable",
      "type": "function"
    },
    {
      "inputs": [
        {
          "internalType": "bytes32",
          "name": "_name",
          "type": "bytes32"
        },
        {
          "internalType": "bytes32",
          "name": "_artist",
          "type": "bytes32"
        },
        {
          "internalType": "bytes32",
          "name": "_collection",
          "type": "bytes32"
        }
      ],
      "name": "mint",
      "outputs": [],
      "stateMutability": "nonpayable",
      "type": "function"
    },
    {
      "inputs": [
        {
          "internalType": "uint256",
          "name": "_nftID",
          "type": "uint256"
        },
        {
          "internalType": "bytes32",
          "name": "_digest",
          "type": "bytes32"
        },
        {
          "internalType": "uint8",
          "name": "_hashFunction",
          "type": "uint8"
        },
        {
          "internalType": "uint8",
          "name": "_size",
          "type": "uint8"
        }
      ],
      "name": "addThumnail",
      "outputs": [],
      "stateMutability": "nonpayable",
      "type": "function"
    },
    {
      "inputs": [
        {
          "internalType": "uint256[]",
          "name": "_nftIDs",
          "type": "uint256[]"
        }
      ],
      "name": "dumpNFTSpecsToEventLog",
      "outputs": [],
      "stateMutability": "nonpayable",
      "type": "function"
    },
    {
      "inputs": [
        {
          "internalType": "uint256",
          "name": "_nftID",
          "type": "uint256"
        }
      ],
      "name": "addPlay",
      "outputs": [],
      "stateMutability": "nonpayable",
      "type": "function"
    },
    {
      "inputs": [
        {
          "internalType": "uint256[]",
          "name": "_nftIDs",
          "type": "uint256[]"
        }
      ],
      "name": "reportPlays",
      "outputs": [],
      "stateMutability": "nonpayable",
      "type": "function"
    }
  ],
  "bytecode": "0x60806040523480156200001157600080fd5b506040518060400160405280601081526020017f496e74656c50726f70657274794e4654000000000000000000000000000000008152506040518060400160405280600581526020017f49504e465400000000000000000000000000000000000000000000000000000081525081600090805190602001906200009692919062000171565b508060019080519060200190620000af92919062000171565b5050506000620000c46200016960201b60201c565b905080600a60006101000a81548173ffffffffffffffffffffffffffffffffffffffff021916908373ffffffffffffffffffffffffffffffffffffffff1602179055508073ffffffffffffffffffffffffffffffffffffffff16600073ffffffffffffffffffffffffffffffffffffffff167f8be0079c531659141344cd1fd0a4f28419497f9722a3daafe3b4186f6b6457e060405160405180910390a35062000286565b600033905090565b8280546200017f9062000221565b90600052602060002090601f016020900481019282620001a35760008555620001ef565b82601f10620001be57805160ff1916838001178555620001ef565b82800160010185558215620001ef579182015b82811115620001ee578251825591602001919060010190620001d1565b5b509050620001fe919062000202565b5090565b5b808211156200021d57600081600090555060010162000203565b5090565b600060028204905060018216806200023a57607f821691505b6020821081141562000251576200025062000257565b5b50919050565b7f4e487b7100000000000000000000000000000000000000000000000000000000600052602260045260246000fd5b613c1980620002966000396000f3fe608060405234801561001057600080fd5b50600436106101575760003560e01c80634f6ccce7116100c3578063a22cb4651161007c578063a22cb465146103c2578063b88d4fde146103de578063c87b56dd146103fa578063e18845f31461042a578063e985e9c514610446578063f2fde38b1461047657610157565b80634f6ccce7146102ec5780636352211e1461031c57806370a082311461034c578063715018a61461037c5780638da5cb5b1461038657806395d89b41146103a457610157565b806318160ddd1161011557806318160ddd1461022e57806323b872dd1461024c5780632f745c59146102685780633f5101961461029857806342842e0e146102b45780634eeb381e146102d057610157565b8062ff6f621461015c57806301ffc9a71461017857806306fdde03146101a8578063081812fc146101c6578063095ea7b3146101f657806315f5d0ad14610212575b600080fd5b6101766004803603810190610171919061275e565b610492565b005b610192600480360381019061018d91906127f2565b61050b565b60405161019f9190613371565b60405180910390f35b6101b0610585565b6040516101bd919061338c565b60405180910390f35b6101e060048036038101906101db9190612844565b610617565b6040516101ed91906132e8565b60405180910390f35b610210600480360381019061020b9190612722565b61069c565b005b61022c6004803603810190610227919061275e565b6107b4565b005b61023661082a565b604051610243919061365a565b60405180910390f35b6102666004803603810190610261919061261c565b610837565b005b610282600480360381019061027d9190612722565b610897565b60405161028f919061365a565b60405180910390f35b6102b260048036038101906102ad9190612844565b61093c565b005b6102ce60048036038101906102c9919061261c565b610982565b005b6102ea60048036038101906102e591906127a3565b6109a2565b005b61030660048036038101906103019190612844565b610ab0565b604051610313919061365a565b60405180910390f35b61033660048036038101906103319190612844565b610b47565b60405161034391906132e8565b60405180910390f35b610366600480360381019061036191906125b7565b610bf9565b604051610373919061365a565b60405180910390f35b610384610cb1565b005b61038e610dee565b60405161039b91906132e8565b60405180910390f35b6103ac610e18565b6040516103b9919061338c565b60405180910390f35b6103dc60048036038101906103d791906126e6565b610eaa565b005b6103f860048036038101906103f3919061266b565b61102b565b005b610414600480360381019061040f9190612844565b61108d565b604051610421919061338c565b60405180910390f35b610444600480360381019061043f919061286d565b611134565b005b610460600480360381019061045b91906125e0565b611256565b60405161046d9190613371565b60405180910390f35b610490600480360381019061048b91906125b7565b6112ea565b005b60005b82829050811015610506576000600b60008381526020019081526020016000209050817fb29090e054a905a2b16943aed0a6cfd379a548b126ea7d745898064650b53f86826004016040516104ea919061334f565b60405180910390a25080806104fe906139e5565b915050610495565b505050565b60007f780e9d63000000000000000000000000000000000000000000000000000000007bffffffffffffffffffffffffffffffffffffffffffffffffffffffff1916827bffffffffffffffffffffffffffffffffffffffffffffffffffffffff1916148061057e575061057d82611496565b5b9050919050565b60606000805461059490613931565b80601f01602080910402602001604051908101604052809291908181526020018280546105c090613931565b801561060d5780601f106105e25761010080835404028352916020019161060d565b820191906000526020600020905b8154815290600101906020018083116105f057829003601f168201915b5050505050905090565b600061062282611578565b610661576040517f08c379a000000000000000000000000000000000000000000000000000000000815260040161065890613558565b60405180910390fd5b6004600083815260200190815260200160002060009054906101000a900473ffffffffffffffffffffffffffffffffffffffff169050919050565b60006106a782610b47565b90508073ffffffffffffffffffffffffffffffffffffffff168373ffffffffffffffffffffffffffffffffffffffff161415610718576040517f08c379a000000000000000000000000000000000000000000000000000000000815260040161070f906135d8565b60405180910390fd5b8073ffffffffffffffffffffffffffffffffffffffff166107376115e4565b73ffffffffffffffffffffffffffffffffffffffff1614806107665750610765816107606115e4565b611256565b5b6107a5576040517f08c379a000000000000000000000000000000000000000000000000000000000815260040161079c906134d8565b60405180910390fd5b6107af83836115ec565b505050565b60005b82829050811015610825576000600b60008381526020019081526020016000209050817f3abd47138cbe2ddb7502348caf1d7e7f6b3db4433415a8e896fc5f65c427a9a8826040516108099190613638565b60405180910390a250808061081d906139e5565b9150506107b7565b505050565b6000600880549050905090565b6108486108426115e4565b826116a5565b610887576040517f08c379a000000000000000000000000000000000000000000000000000000000815260040161087e906135f8565b60405180910390fd5b610892838383611783565b505050565b60006108a283610bf9565b82106108e3576040517f08c379a00000000000000000000000000000000000000000000000000000000081526004016108da906133ae565b60405180910390fd5b600660008473ffffffffffffffffffffffffffffffffffffffff1673ffffffffffffffffffffffffffffffffffffffff168152602001908152602001600020600083815260200190815260200160002054905092915050565b6000600b60008381526020019081526020016000209050806004014290806001815401808255809150506001900390600052602060002001600090919091909150555050565b61099d8383836040518060200160405280600081525061102b565b505050565b6109aa6115e4565b73ffffffffffffffffffffffffffffffffffffffff166109c8610dee565b73ffffffffffffffffffffffffffffffffffffffff1614610a1e576040517f08c379a0000000000000000000000000000000000000000000000000000000008152600401610a1590613578565b60405180910390fd5b6000610a2861082a565b9050610a3433826119df565b6000600b60008381526020019081526020016000209050338160000160006101000a81548173ffffffffffffffffffffffffffffffffffffffff021916908373ffffffffffffffffffffffffffffffffffffffff1602179055508481600101819055508381600201819055508281600301819055505050505050565b6000610aba61082a565b8210610afb576040517f08c379a0000000000000000000000000000000000000000000000000000000008152600401610af290613618565b60405180910390fd5b60088281548110610b35577f4e487b7100000000000000000000000000000000000000000000000000000000600052603260045260246000fd5b90600052602060002001549050919050565b6000806002600084815260200190815260200160002060009054906101000a900473ffffffffffffffffffffffffffffffffffffffff169050600073ffffffffffffffffffffffffffffffffffffffff168173ffffffffffffffffffffffffffffffffffffffff161415610bf0576040517f08c379a0000000000000000000000000000000000000000000000000000000008152600401610be790613518565b60405180910390fd5b80915050919050565b60008073ffffffffffffffffffffffffffffffffffffffff168273ffffffffffffffffffffffffffffffffffffffff161415610c6a576040517f08c379a0000000000000000000000000000000000000000000000000000000008152600401610c61906134f8565b60405180910390fd5b600360008373ffffffffffffffffffffffffffffffffffffffff1673ffffffffffffffffffffffffffffffffffffffff168152602001908152602001600020549050919050565b610cb96115e4565b73ffffffffffffffffffffffffffffffffffffffff16610cd7610dee565b73ffffffffffffffffffffffffffffffffffffffff1614610d2d576040517f08c379a0000000000000000000000000000000000000000000000000000000008152600401610d2490613578565b60405180910390fd5b600073ffffffffffffffffffffffffffffffffffffffff16600a60009054906101000a900473ffffffffffffffffffffffffffffffffffffffff1673ffffffffffffffffffffffffffffffffffffffff167f8be0079c531659141344cd1fd0a4f28419497f9722a3daafe3b4186f6b6457e060405160405180910390a36000600a60006101000a81548173ffffffffffffffffffffffffffffffffffffffff021916908373ffffffffffffffffffffffffffffffffffffffff160217905550565b6000600a60009054906101000a900473ffffffffffffffffffffffffffffffffffffffff16905090565b606060018054610e2790613931565b80601f0160208091040260200160405190810160405280929190818152602001828054610e5390613931565b8015610ea05780601f10610e7557610100808354040283529160200191610ea0565b820191906000526020600020905b815481529060010190602001808311610e8357829003601f168201915b5050505050905090565b610eb26115e4565b73ffffffffffffffffffffffffffffffffffffffff168273ffffffffffffffffffffffffffffffffffffffff161415610f20576040517f08c379a0000000000000000000000000000000000000000000000000000000008152600401610f1790613498565b60405180910390fd5b8060056000610f2d6115e4565b73ffffffffffffffffffffffffffffffffffffffff1673ffffffffffffffffffffffffffffffffffffffff16815260200190815260200160002060008473ffffffffffffffffffffffffffffffffffffffff1673ffffffffffffffffffffffffffffffffffffffff16815260200190815260200160002060006101000a81548160ff0219169083151502179055508173ffffffffffffffffffffffffffffffffffffffff16610fda6115e4565b73ffffffffffffffffffffffffffffffffffffffff167f17307eab39ab6107e8899845ad3d59bd9653f200f220920489ca2b5937696c318360405161101f9190613371565b60405180910390a35050565b61103c6110366115e4565b836116a5565b61107b576040517f08c379a0000000000000000000000000000000000000000000000000000000008152600401611072906135f8565b60405180910390fd5b61108784848484611bad565b50505050565b606061109882611578565b6110d7576040517f08c379a00000000000000000000000000000000000000000000000000000000081526004016110ce906135b8565b60405180910390fd5b60006110e1611c09565b90506000815111611101576040518060200160405280600081525061112c565b8061110b84611c20565b60405160200161111c9291906132c4565b6040516020818303038152906040525b915050919050565b61113c6115e4565b73ffffffffffffffffffffffffffffffffffffffff1661115a610dee565b73ffffffffffffffffffffffffffffffffffffffff16146111b0576040517f08c379a00000000000000000000000000000000000000000000000000000000081526004016111a790613578565b60405180910390fd5b6000600b600086815260200190815260200160002090506000816005019050848160000181905550838160010160006101000a81548160ff021916908360ff160217905550828160010160016101000a81548160ff021916908360ff160217905550857febf9e6372d47afac8e70e60e4728967234b1c9fbb5d80bb9df8407277439646a8686866040516112469392919061342e565b60405180910390a2505050505050565b6000600560008473ffffffffffffffffffffffffffffffffffffffff1673ffffffffffffffffffffffffffffffffffffffff16815260200190815260200160002060008373ffffffffffffffffffffffffffffffffffffffff1673ffffffffffffffffffffffffffffffffffffffff16815260200190815260200160002060009054906101000a900460ff16905092915050565b6112f26115e4565b73ffffffffffffffffffffffffffffffffffffffff16611310610dee565b73ffffffffffffffffffffffffffffffffffffffff1614611366576040517f08c379a000000000000000000000000000000000000000000000000000000000815260040161135d90613578565b60405180910390fd5b600073ffffffffffffffffffffffffffffffffffffffff168173ffffffffffffffffffffffffffffffffffffffff1614156113d6576040517f08c379a00000000000000000000000000000000000000000000000000000000081526004016113cd906133ee565b60405180910390fd5b8073ffffffffffffffffffffffffffffffffffffffff16600a60009054906101000a900473ffffffffffffffffffffffffffffffffffffffff1673ffffffffffffffffffffffffffffffffffffffff167f8be0079c531659141344cd1fd0a4f28419497f9722a3daafe3b4186f6b6457e060405160405180910390a380600a60006101000a81548173ffffffffffffffffffffffffffffffffffffffff021916908373ffffffffffffffffffffffffffffffffffffffff16021790555050565b60007f80ac58cd000000000000000000000000000000000000000000000000000000007bffffffffffffffffffffffffffffffffffffffffffffffffffffffff1916827bffffffffffffffffffffffffffffffffffffffffffffffffffffffff1916148061156157507f5b5e139f000000000000000000000000000000000000000000000000000000007bffffffffffffffffffffffffffffffffffffffffffffffffffffffff1916827bffffffffffffffffffffffffffffffffffffffffffffffffffffffff1916145b80611571575061157082611dcd565b5b9050919050565b60008073ffffffffffffffffffffffffffffffffffffffff166002600084815260200190815260200160002060009054906101000a900473ffffffffffffffffffffffffffffffffffffffff1673ffffffffffffffffffffffffffffffffffffffff1614159050919050565b600033905090565b816004600083815260200190815260200160002060006101000a81548173ffffffffffffffffffffffffffffffffffffffff021916908373ffffffffffffffffffffffffffffffffffffffff160217905550808273ffffffffffffffffffffffffffffffffffffffff1661165f83610b47565b73ffffffffffffffffffffffffffffffffffffffff167f8c5be1e5ebec7d5bd14f71427d1e84f3dd0314c0f7b2291e5b200ac8c7c3b92560405160405180910390a45050565b60006116b082611578565b6116ef576040517f08c379a00000000000000000000000000000000000000000000000000000000081526004016116e6906134b8565b60405180910390fd5b60006116fa83610b47565b90508073ffffffffffffffffffffffffffffffffffffffff168473ffffffffffffffffffffffffffffffffffffffff16148061176957508373ffffffffffffffffffffffffffffffffffffffff1661175184610617565b73ffffffffffffffffffffffffffffffffffffffff16145b8061177a57506117798185611256565b5b91505092915050565b8273ffffffffffffffffffffffffffffffffffffffff166117a382610b47565b73ffffffffffffffffffffffffffffffffffffffff16146117f9576040517f08c379a00000000000000000000000000000000000000000000000000000000081526004016117f090613598565b60405180910390fd5b600073ffffffffffffffffffffffffffffffffffffffff168273ffffffffffffffffffffffffffffffffffffffff161415611869576040517f08c379a000000000000000000000000000000000000000000000000000000000815260040161186090613478565b60405180910390fd5b611874838383611e37565b61187f6000826115ec565b6001600360008573ffffffffffffffffffffffffffffffffffffffff1673ffffffffffffffffffffffffffffffffffffffff16815260200190815260200160002060008282546118cf91906137ef565b925050819055506001600360008473ffffffffffffffffffffffffffffffffffffffff1673ffffffffffffffffffffffffffffffffffffffff16815260200190815260200160002060008282546119269190613768565b92505081905550816002600083815260200190815260200160002060006101000a81548173ffffffffffffffffffffffffffffffffffffffff021916908373ffffffffffffffffffffffffffffffffffffffff160217905550808273ffffffffffffffffffffffffffffffffffffffff168473ffffffffffffffffffffffffffffffffffffffff167fddf252ad1be2c89b69c2b068fc378daa952ba7f163c4a11628f55a4df523b3ef60405160405180910390a4505050565b600073ffffffffffffffffffffffffffffffffffffffff168273ffffffffffffffffffffffffffffffffffffffff161415611a4f576040517f08c379a0000000000000000000000000000000000000000000000000000000008152600401611a4690613538565b60405180910390fd5b611a5881611578565b15611a98576040517f08c379a0000000000000000000000000000000000000000000000000000000008152600401611a8f9061340e565b60405180910390fd5b611aa460008383611e37565b6001600360008473ffffffffffffffffffffffffffffffffffffffff1673ffffffffffffffffffffffffffffffffffffffff1681526020019081526020016000206000828254611af49190613768565b92505081905550816002600083815260200190815260200160002060006101000a81548173ffffffffffffffffffffffffffffffffffffffff021916908373ffffffffffffffffffffffffffffffffffffffff160217905550808273ffffffffffffffffffffffffffffffffffffffff16600073ffffffffffffffffffffffffffffffffffffffff167fddf252ad1be2c89b69c2b068fc378daa952ba7f163c4a11628f55a4df523b3ef60405160405180910390a45050565b611bb8848484611783565b611bc484848484611f4b565b611c03576040517f08c379a0000000000000000000000000000000000000000000000000000000008152600401611bfa906133ce565b60405180910390fd5b50505050565b606060405180602001604052806000815250905090565b60606000821415611c68576040518060400160405280600181526020017f30000000000000000000000000000000000000000000000000000000000000008152509050611dc8565b600082905060005b60008214611c9a578080611c83906139e5565b915050600a82611c9391906137be565b9150611c70565b60008167ffffffffffffffff811115611cdc577f4e487b7100000000000000000000000000000000000000000000000000000000600052604160045260246000fd5b6040519080825280601f01601f191660200182016040528015611d0e5781602001600182028036833780820191505090505b5090505b60008514611dc157600182611d2791906137ef565b9150600a85611d369190613a2e565b6030611d429190613768565b60f81b818381518110611d7e577f4e487b7100000000000000000000000000000000000000000000000000000000600052603260045260246000fd5b60200101907effffffffffffffffffffffffffffffffffffffffffffffffffffffffffffff1916908160001a905350600a85611dba91906137be565b9450611d12565b8093505050505b919050565b60007f01ffc9a7000000000000000000000000000000000000000000000000000000007bffffffffffffffffffffffffffffffffffffffffffffffffffffffff1916827bffffffffffffffffffffffffffffffffffffffffffffffffffffffff1916149050919050565b611e428383836120e2565b600073ffffffffffffffffffffffffffffffffffffffff168373ffffffffffffffffffffffffffffffffffffffff161415611e8557611e80816120e7565b611ec4565b8173ffffffffffffffffffffffffffffffffffffffff168373ffffffffffffffffffffffffffffffffffffffff1614611ec357611ec28382612130565b5b5b600073ffffffffffffffffffffffffffffffffffffffff168273ffffffffffffffffffffffffffffffffffffffff161415611f0757611f028161229d565b611f46565b8273ffffffffffffffffffffffffffffffffffffffff168273ffffffffffffffffffffffffffffffffffffffff1614611f4557611f4482826123e0565b5b5b505050565b6000611f6c8473ffffffffffffffffffffffffffffffffffffffff1661245f565b156120d5578373ffffffffffffffffffffffffffffffffffffffff1663150b7a02611f956115e4565b8786866040518563ffffffff1660e01b8152600401611fb79493929190613303565b602060405180830381600087803b158015611fd157600080fd5b505af192505050801561200257506040513d601f19601f82011682018060405250810190611fff919061281b565b60015b612085573d8060008114612032576040519150601f19603f3d011682016040523d82523d6000602084013e612037565b606091505b5060008151141561207d576040517f08c379a0000000000000000000000000000000000000000000000000000000008152600401612074906133ce565b60405180910390fd5b805181602001fd5b63150b7a0260e01b7bffffffffffffffffffffffffffffffffffffffffffffffffffffffff1916817bffffffffffffffffffffffffffffffffffffffffffffffffffffffff1916149150506120da565b600190505b949350505050565b505050565b6008805490506009600083815260200190815260200160002081905550600881908060018154018082558091505060019003906000526020600020016000909190919091505550565b6000600161213d84610bf9565b61214791906137ef565b905060006007600084815260200190815260200160002054905081811461222c576000600660008673ffffffffffffffffffffffffffffffffffffffff1673ffffffffffffffffffffffffffffffffffffffff168152602001908152602001600020600084815260200190815260200160002054905080600660008773ffffffffffffffffffffffffffffffffffffffff1673ffffffffffffffffffffffffffffffffffffffff168152602001908152602001600020600084815260200190815260200160002081905550816007600083815260200190815260200160002081905550505b6007600084815260200190815260200160002060009055600660008573ffffffffffffffffffffffffffffffffffffffff1673ffffffffffffffffffffffffffffffffffffffff16815260200190815260200160002060008381526020019081526020016000206000905550505050565b600060016008805490506122b191906137ef565b9050600060096000848152602001908152602001600020549050600060088381548110612307577f4e487b7100000000000000000000000000000000000000000000000000000000600052603260045260246000fd5b90600052602060002001549050806008838154811061234f577f4e487b7100000000000000000000000000000000000000000000000000000000600052603260045260246000fd5b9060005260206000200181905550816009600083815260200190815260200160002081905550600960008581526020019081526020016000206000905560088054806123c4577f4e487b7100000000000000000000000000000000000000000000000000000000600052603160045260246000fd5b6001900381819060005260206000200160009055905550505050565b60006123eb83610bf9565b905081600660008573ffffffffffffffffffffffffffffffffffffffff1673ffffffffffffffffffffffffffffffffffffffff168152602001908152602001600020600083815260200190815260200160002081905550806007600084815260200190815260200160002081905550505050565b600080823b905060008111915050919050565b6000612485612480846136a6565b613675565b90508281526020810184848401111561249d57600080fd5b6124a88482856138ef565b509392505050565b6000813590506124bf81613b59565b92915050565b60008083601f8401126124d757600080fd5b8235905067ffffffffffffffff8111156124f057600080fd5b60208301915083602082028301111561250857600080fd5b9250929050565b60008135905061251e81613b70565b92915050565b60008135905061253381613b87565b92915050565b60008135905061254881613b9e565b92915050565b60008151905061255d81613b9e565b92915050565b600082601f83011261257457600080fd5b8135612584848260208601612472565b91505092915050565b60008135905061259c81613bb5565b92915050565b6000813590506125b181613bcc565b92915050565b6000602082840312156125c957600080fd5b60006125d7848285016124b0565b91505092915050565b600080604083850312156125f357600080fd5b6000612601858286016124b0565b9250506020612612858286016124b0565b9150509250929050565b60008060006060848603121561263157600080fd5b600061263f868287016124b0565b9350506020612650868287016124b0565b92505060406126618682870161258d565b9150509250925092565b6000806000806080858703121561268157600080fd5b600061268f878288016124b0565b94505060206126a0878288016124b0565b93505060406126b18782880161258d565b925050606085013567ffffffffffffffff8111156126ce57600080fd5b6126da87828801612563565b91505092959194509250565b600080604083850312156126f957600080fd5b6000612707858286016124b0565b92505060206127188582860161250f565b9150509250929050565b6000806040838503121561273557600080fd5b6000612743858286016124b0565b92505060206127548582860161258d565b9150509250929050565b6000806020838503121561277157600080fd5b600083013567ffffffffffffffff81111561278b57600080fd5b612797858286016124c5565b92509250509250929050565b6000806000606084860312156127b857600080fd5b60006127c686828701612524565b93505060206127d786828701612524565b92505060406127e886828701612524565b9150509250925092565b60006020828403121561280457600080fd5b600061281284828501612539565b91505092915050565b60006020828403121561282d57600080fd5b600061283b8482850161254e565b91505092915050565b60006020828403121561285657600080fd5b60006128648482850161258d565b91505092915050565b6000806000806080858703121561288357600080fd5b60006128918782880161258d565b94505060206128a287828801612524565b93505060406128b3878288016125a2565b92505060606128c4878288016125a2565b91505092959194509250565b60006128dc8383613288565b60208301905092915050565b6128f181613864565b82525050565b61290081613864565b82525050565b6000612911826136eb565b61291b8185613719565b9350612926836136d6565b8060005b8381101561295e5761293b82613b1b565b61294588826128d0565b97506129508361370c565b92505060018101905061292a565b5085935050505092915050565b6000612976826136eb565b612980818561372a565b935061298b836136d6565b8060005b838110156129c3576129a082613b1b565b6129aa88826128d0565b97506129b58361370c565b92505060018101905061298f565b5085935050505092915050565b6129d981613876565b82525050565b6129e881613882565b82525050565b6129f781613882565b82525050565b6000612a08826136f6565b612a12818561373b565b9350612a228185602086016138fe565b612a2b81613b2e565b840191505092915050565b6000612a4182613701565b612a4b818561374c565b9350612a5b8185602086016138fe565b612a6481613b2e565b840191505092915050565b6000612a7a82613701565b612a84818561375d565b9350612a948185602086016138fe565b80840191505092915050565b6000612aad602b8361374c565b91507f455243373231456e756d657261626c653a206f776e657220696e646578206f7560008301527f74206f6620626f756e64730000000000000000000000000000000000000000006020830152604082019050919050565b6000612b1360328361374c565b91507f4552433732313a207472616e7366657220746f206e6f6e20455243373231526560008301527f63656976657220696d706c656d656e74657200000000000000000000000000006020830152604082019050919050565b6000612b7960268361374c565b91507f4f776e61626c653a206e6577206f776e657220697320746865207a65726f206160008301527f64647265737300000000000000000000000000000000000000000000000000006020830152604082019050919050565b6000612bdf601c8361374c565b91507f4552433732313a20746f6b656e20616c7265616479206d696e746564000000006000830152602082019050919050565b6000612c1f60098361374c565b91507f7468756d626e61696c00000000000000000000000000000000000000000000006000830152602082019050919050565b6000612c5f60248361374c565b91507f4552433732313a207472616e7366657220746f20746865207a65726f2061646460008301527f72657373000000000000000000000000000000000000000000000000000000006020830152604082019050919050565b6000612cc560198361374c565b91507f4552433732313a20617070726f766520746f2063616c6c6572000000000000006000830152602082019050919050565b6000612d05602c8361374c565b91507f4552433732313a206f70657261746f7220717565727920666f72206e6f6e657860008301527f697374656e7420746f6b656e00000000000000000000000000000000000000006020830152604082019050919050565b6000612d6b60388361374c565b91507f4552433732313a20617070726f76652063616c6c6572206973206e6f74206f7760008301527f6e6572206e6f7220617070726f76656420666f7220616c6c00000000000000006020830152604082019050919050565b6000612dd1602a8361374c565b91507f4552433732313a2062616c616e636520717565727920666f7220746865207a6560008301527f726f2061646472657373000000000000000000000000000000000000000000006020830152604082019050919050565b6000612e3760298361374c565b91507f4552433732313a206f776e657220717565727920666f72206e6f6e657869737460008301527f656e7420746f6b656e00000000000000000000000000000000000000000000006020830152604082019050919050565b6000612e9d60208361374c565b91507f4552433732313a206d696e7420746f20746865207a65726f20616464726573736000830152602082019050919050565b6000612edd602c8361374c565b91507f4552433732313a20617070726f76656420717565727920666f72206e6f6e657860008301527f697374656e7420746f6b656e00000000000000000000000000000000000000006020830152604082019050919050565b6000612f4360208361374c565b91507f4f776e61626c653a2063616c6c6572206973206e6f7420746865206f776e65726000830152602082019050919050565b6000612f8360298361374c565b91507f4552433732313a207472616e73666572206f6620746f6b656e2074686174206960008301527f73206e6f74206f776e00000000000000000000000000000000000000000000006020830152604082019050919050565b6000612fe9602f8361374c565b91507f4552433732314d657461646174613a2055524920717565727920666f72206e6f60008301527f6e6578697374656e7420746f6b656e00000000000000000000000000000000006020830152604082019050919050565b600061304f60218361374c565b91507f4552433732313a20617070726f76616c20746f2063757272656e74206f776e6560008301527f72000000000000000000000000000000000000000000000000000000000000006020830152604082019050919050565b60006130b560318361374c565b91507f4552433732313a207472616e736665722063616c6c6572206973206e6f74206f60008301527f776e6572206e6f7220617070726f7665640000000000000000000000000000006020830152604082019050919050565b600061311b602c8361374c565b91507f455243373231456e756d657261626c653a20676c6f62616c20696e646578206f60008301527f7574206f6620626f756e647300000000000000000000000000000000000000006020830152604082019050919050565b6060820160008083015490506131898161397d565b61319660008601826129df565b50600183015490506131a7816139b1565b6131b460208601826132a6565b506131be816139cb565b6131cb60408601826132a6565b5050505050565b6000610100830160008084015490506131ea81613963565b6131f760008701826128e8565b50600184015490506132088161397d565b61321560208701826129df565b50600284015490506132268161397d565b61323360408701826129df565b50600384015490506132448161397d565b61325160608701826129df565b506004840185830360808701526132688382612906565b9250506005840161327c60a0870182613174565b50819250505092915050565b613291816138d8565b82525050565b6132a0816138d8565b82525050565b6132af816138e2565b82525050565b6132be816138e2565b82525050565b60006132d08285612a6f565b91506132dc8284612a6f565b91508190509392505050565b60006020820190506132fd60008301846128f7565b92915050565b600060808201905061331860008301876128f7565b61332560208301866128f7565b6133326040830185613297565b818103606083015261334481846129fd565b905095945050505050565b60006020820190508181036000830152613369818461296b565b905092915050565b600060208201905061338660008301846129d0565b92915050565b600060208201905081810360008301526133a68184612a36565b905092915050565b600060208201905081810360008301526133c781612aa0565b9050919050565b600060208201905081810360008301526133e781612b06565b9050919050565b6000602082019050818103600083015261340781612b6c565b9050919050565b6000602082019050818103600083015261342781612bd2565b9050919050565b6000608082019050818103600083015261344781612c12565b905061345660208301866129ee565b61346360408301856132b5565b61347060608301846132b5565b949350505050565b6000602082019050818103600083015261349181612c52565b9050919050565b600060208201905081810360008301526134b181612cb8565b9050919050565b600060208201905081810360008301526134d181612cf8565b9050919050565b600060208201905081810360008301526134f181612d5e565b9050919050565b6000602082019050818103600083015261351181612dc4565b9050919050565b6000602082019050818103600083015261353181612e2a565b9050919050565b6000602082019050818103600083015261355181612e90565b9050919050565b6000602082019050818103600083015261357181612ed0565b9050919050565b6000602082019050818103600083015261359181612f36565b9050919050565b600060208201905081810360008301526135b181612f76565b9050919050565b600060208201905081810360008301526135d181612fdc565b9050919050565b600060208201905081810360008301526135f181613042565b9050919050565b60006020820190508181036000830152613611816130a8565b9050919050565b600060208201905081810360008301526136318161310e565b9050919050565b6000602082019050818103600083015261365281846131d2565b905092915050565b600060208201905061366f6000830184613297565b92915050565b6000604051905081810181811067ffffffffffffffff8211171561369c5761369b613aec565b5b8060405250919050565b600067ffffffffffffffff8211156136c1576136c0613aec565b5b601f19601f8301169050602081019050919050565b60008190508160005260206000209050919050565b600081549050919050565b600081519050919050565b600081519050919050565b6000600182019050919050565b600082825260208201905092915050565b600082825260208201905092915050565b600082825260208201905092915050565b600082825260208201905092915050565b600081905092915050565b6000613773826138d8565b915061377e836138d8565b9250827fffffffffffffffffffffffffffffffffffffffffffffffffffffffffffffffff038211156137b3576137b2613a5f565b5b828201905092915050565b60006137c9826138d8565b91506137d4836138d8565b9250826137e4576137e3613a8e565b5b828204905092915050565b60006137fa826138d8565b9150613805836138d8565b92508282101561381857613817613a5f565b5b828203905092915050565b600073ffffffffffffffffffffffffffffffffffffffff82169050919050565b6000819050919050565b6000819050919050565b600060ff82169050919050565b600061386f826138b8565b9050919050565b60008115159050919050565b6000819050919050565b60007fffffffff0000000000000000000000000000000000000000000000000000000082169050919050565b600073ffffffffffffffffffffffffffffffffffffffff82169050919050565b6000819050919050565b600060ff82169050919050565b82818337600083830152505050565b60005b8381101561391c578082015181840152602081019050613901565b8381111561392b576000848401525b50505050565b6000600282049050600182168061394957607f821691505b6020821081141561395d5761395c613abd565b5b50919050565b600061397661397183613b3f565b613823565b9050919050565b600061399061398b83613b3f565b613843565b9050919050565b60006139aa6139a583613b3f565b61384d565b9050919050565b60006139c46139bf83613b3f565b613857565b9050919050565b60006139de6139d983613b4c565b613857565b9050919050565b60006139f0826138d8565b91507fffffffffffffffffffffffffffffffffffffffffffffffffffffffffffffffff821415613a2357613a22613a5f565b5b600182019050919050565b6000613a39826138d8565b9150613a44836138d8565b925082613a5457613a53613a8e565b5b828206905092915050565b7f4e487b7100000000000000000000000000000000000000000000000000000000600052601160045260246000fd5b7f4e487b7100000000000000000000000000000000000000000000000000000000600052601260045260246000fd5b7f4e487b7100000000000000000000000000000000000000000000000000000000600052602260045260246000fd5b7f4e487b7100000000000000000000000000000000000000000000000000000000600052604160045260246000fd5b6000613b278254613997565b9050919050565b6000601f19601f8301169050919050565b60008160001c9050919050565b60008160081c9050919050565b613b6281613864565b8114613b6d57600080fd5b50565b613b7981613876565b8114613b8457600080fd5b50565b613b9081613882565b8114613b9b57600080fd5b50565b613ba78161388c565b8114613bb257600080fd5b50565b613bbe816138d8565b8114613bc957600080fd5b50565b613bd5816138e2565b8114613be057600080fd5b5056fea2646970667358221220c7f653fc7ae343369e38d35c8eb93d473e9a066552fe787a7fadd18ba1eef7fb64736f6c63430008000033",
  "immutableReferences": {},
  "source": "// SPDX-License-Identifier: MIT\r\npragma solidity ^0.8.0;\r\n\r\nimport \"@openzeppelin/contracts/token/ERC721/extensions/ERC721Enumerable.sol\";\r\nimport \"@openzeppelin/contracts/token/ERC721/ERC721.sol\";\r\nimport \"@openzeppelin/contracts/access/Ownable.sol\";\r\n\r\n/** @title IntelPropertyNFT.sol is an ERC721 token smart contract handling Intellectual Property. \r\n  * @author Chris Ball\r\n  * @notice This contract is an ERC721 token derived from ERC721Enumerable.sol. It works in conjuction with \r\n  * the IntelPropertyTokens contract, which tracks rightsHolder information for each NFT. There is also an \r\n  * optional IntelPropertyAgreement contract which all rightsHolders (and the NFT's contract owner) can use \r\n  * to keep all parties on the same page. \r\n*/\r\ncontract IntelPropertyNFT is ERC721Enumerable, Ownable {\r\n \r\n\tstruct NFTSpec {\r\n\t\taddress admin;\r\n\t\tbytes32 name; // nftID => name (human readable alias for the nftID)\r\n\t\tbytes32 artist; // nftID => artist name\r\n\t\tbytes32 collection; // nftID => collection name\r\n\t\tuint[] playsByDate;  // nftID => timeStamp array of plays (or views)\r\n\t\tMultihash thumbnail; // ifps hash of NFT thumbnail picture\t\r\n\t}\r\n\tstruct Multihash {\r\n\t\tbytes32 digest;\r\n\t\tuint8 hashFunction;\r\n\t\tuint8 size;\r\n\t}\r\n\t\r\n\tmapping (uint => NFTSpec) nftSpecs; // nftID => NFTSpec\r\n\t\r\n\t/** @dev this event dumps information about the NFT to the event log. IMPORTANT: the NFTSpec object contains \r\n\t  * a lot of information. This is why, instead of having a view function that returns the info from the contract \r\n\t  * to an external calling proc - which could be very expensive, we dump it to the event log. That way any front \r\n\t  * end script can read the off chain data and deal with it in any way needed. \r\n\t*/\r\n\tevent dumpNFTInfo(uint indexed nftID, NFTSpec nftSpec);\r\n\t/** @dev dumps play array information to the event log (each play + it's timeStamp) */\r\n\tevent dumpPlayReport(uint indexed nftID, uint[] playDates);\r\n\t/** @dev event logs the setting of the thumbnail hash for the NFT */\r\n\tevent ipfsHashSetToNFT (uint indexed nftID, string  hashType, bytes32 digest, uint8 hashFunction, uint8 size);\r\n\r\n\tconstructor() ERC721Enumerable() ERC721(\"IntelPropertyNFT\", \"IPNFT\") public {\r\n\t}    \r\n\r\n\t/** @notice function wraps the ERC721 mint function and sets basic human readable info for the NFT */\r\n\tfunction mint(bytes32 _name, bytes32 _artist, bytes32 _collection) external onlyOwner { \t  \r\n\t//function mint(string memory _name, string memory _artist, string memory _collection) external onlyOwner {\r\n\t  \r\n\t  uint nextNFT = totalSupply(); // totalSupply is 1 based, _mint is 0 based which works well for setting the next index\r\n\t  _mint(msg.sender, nextNFT);\r\n\r\n\t  (NFTSpec storage currNFT) = (nftSpecs[nextNFT]);\r\n\t  currNFT.admin = msg.sender;\r\n\t  currNFT.name = _name;\r\n\t  currNFT.artist = _artist;\r\n\t  currNFT.collection = _collection;\r\n\t}\r\n\r\n\t/** @notice adds an IPFS hash whose content is a thumbnail picture for the NFT */\r\n\tfunction addThumnail(uint _nftID, bytes32 _digest, uint8 _hashFunction, uint8 _size) external onlyOwner {\r\n\t\t(NFTSpec storage currNFT) = (nftSpecs[_nftID]);\r\n\t\t(Multihash storage entry) = (currNFT.thumbnail);\r\n\t\tentry.digest = _digest;\r\n\t\tentry.hashFunction = _hashFunction;\r\n\t\tentry.size = _size;\r\n\t\temit ipfsHashSetToNFT(_nftID, 'thumbnail', _digest, _hashFunction, _size);\r\n\t}\r\n\r\n\t/** @notice method writes to the event log all data about the NFT's included in the incoming _nftIDs array arg */\r\n\tfunction dumpNFTSpecsToEventLog(uint[] calldata _nftIDs) external {\r\n\t\t/** @dev My idea is that we can dump this any time the data is entered for a newly added NFT. From there, \r\n\t\t  * javascript can create searchable arrays: by artist, collection, or even eventually styles or other \r\n\t\t  * keywords. \r\n\t\t  * NOTE: there may be more efficient ways (gas) to handle this 'off chain' data, but writing info to the \r\n\t\t  * event log is one idea I wanted to try.\r\n\t    */\r\n\t\tfor (uint i = 0; i < _nftIDs.length; i++) {\r\n\t\t\t(NFTSpec storage currNFT) = (nftSpecs[i]);\r\n\t\t\temit dumpNFTInfo(i, currNFT);\r\n\t\t}\r\n\t}\r\n\t\r\n\t/** @notice method adds to the play count array (could be renamed 'addView' for visual art) */\r\n\tfunction addPlay(uint _nftID) external {\r\n\t\t(NFTSpec storage currNFT) = (nftSpecs[_nftID]);\r\n\t\tcurrNFT.playsByDate.push(block.timestamp);\r\n\t}\r\n\t\r\n\t/** @notice writes the play history of each NFT in the _nftIDs array to the event log */\r\n\tfunction reportPlays(uint[] calldata _nftIDs) external {\r\n\t\tfor (uint i = 0; i < _nftIDs.length; i++) {\r\n\t\t\t(NFTSpec storage currNFT) = (nftSpecs[i]);\r\n\t\t\temit dumpPlayReport(i, currNFT.playsByDate);\r\n\t\t}\r\n\t}\r\n}",
  "sourcePath": "C:/devroot/Solidity/learning/IntellectualPropertyToken/contracts/IntelPropertyNFT.sol",
  "compiler": {
    "name": "solc",
    "version": "0.8.0+commit.c7dfd78e.Emscripten.clang"
  },
  "schemaVersion": "3.3.4",
  "updatedAt": "2021-06-06T04:34:41.320Z",
  "networkType": "ethereum",
  "devdoc": {
    "author": "Chris Ball",
    "events": {
      "dumpNFTInfo(uint256,(address,bytes32,bytes32,bytes32,uint256[],(bytes32,uint8,uint8)))": {
        "details": "this event dumps information about the NFT to the event log. IMPORTANT: the NFTSpec object contains  a lot of information. This is why, instead of having a view function that returns the info from the contract  to an external calling proc - which could be very expensive, we dump it to the event log. That way any front  end script can read the off chain data and deal with it in any way needed. "
      },
      "dumpPlayReport(uint256,uint256[])": {
        "details": "dumps play array information to the event log (each play + it's timeStamp) "
      },
      "ipfsHashSetToNFT(uint256,string,bytes32,uint8,uint8)": {
        "details": "event logs the setting of the thumbnail hash for the NFT "
      }
    },
    "kind": "dev",
    "methods": {
      "approve(address,uint256)": {
        "details": "See {IERC721-approve}."
      },
      "balanceOf(address)": {
        "details": "See {IERC721-balanceOf}."
      },
      "getApproved(uint256)": {
        "details": "See {IERC721-getApproved}."
      },
      "isApprovedForAll(address,address)": {
        "details": "See {IERC721-isApprovedForAll}."
      },
      "name()": {
        "details": "See {IERC721Metadata-name}."
      },
      "owner()": {
        "details": "Returns the address of the current owner."
      },
      "ownerOf(uint256)": {
        "details": "See {IERC721-ownerOf}."
      },
      "renounceOwnership()": {
        "details": "Leaves the contract without owner. It will not be possible to call `onlyOwner` functions anymore. Can only be called by the current owner. NOTE: Renouncing ownership will leave the contract without an owner, thereby removing any functionality that is only available to the owner."
      },
      "safeTransferFrom(address,address,uint256)": {
        "details": "See {IERC721-safeTransferFrom}."
      },
      "safeTransferFrom(address,address,uint256,bytes)": {
        "details": "See {IERC721-safeTransferFrom}."
      },
      "setApprovalForAll(address,bool)": {
        "details": "See {IERC721-setApprovalForAll}."
      },
      "supportsInterface(bytes4)": {
        "details": "See {IERC165-supportsInterface}."
      },
      "symbol()": {
        "details": "See {IERC721Metadata-symbol}."
      },
      "tokenByIndex(uint256)": {
        "details": "See {IERC721Enumerable-tokenByIndex}."
      },
      "tokenOfOwnerByIndex(address,uint256)": {
        "details": "See {IERC721Enumerable-tokenOfOwnerByIndex}."
      },
      "tokenURI(uint256)": {
        "details": "See {IERC721Metadata-tokenURI}."
      },
      "totalSupply()": {
        "details": "See {IERC721Enumerable-totalSupply}."
      },
      "transferFrom(address,address,uint256)": {
        "details": "See {IERC721-transferFrom}."
      },
      "transferOwnership(address)": {
        "details": "Transfers ownership of the contract to a new account (`newOwner`). Can only be called by the current owner."
      }
    },
    "title": "IntelPropertyNFT.sol is an ERC721 token smart contract handling Intellectual Property. ",
    "version": 1
  },
  "userdoc": {
    "kind": "user",
    "methods": {
      "addPlay(uint256)": {
        "notice": "method adds to the play count array (could be renamed 'addView' for visual art) "
      },
      "addThumnail(uint256,bytes32,uint8,uint8)": {
        "notice": "adds an IPFS hash whose content is a thumbnail picture for the NFT "
      },
      "dumpNFTSpecsToEventLog(uint256[])": {
        "notice": "method writes to the event log all data about the NFT's included in the incoming _nftIDs array arg "
      },
      "mint(bytes32,bytes32,bytes32)": {
        "notice": "function wraps the ERC721 mint function and sets basic human readable info for the NFT "
      },
      "reportPlays(uint256[])": {
        "notice": "writes the play history of each NFT in the _nftIDs array to the event log "
      }
    },
    "notice": "This contract is an ERC721 token derived from ERC721Enumerable.sol. It works in conjuction with  the IntelPropertyTokens contract, which tracks rightsHolder information for each NFT. There is also an  optional IntelPropertyAgreement contract which all rightsHolders (and the NFT's contract owner) can use  to keep all parties on the same page. ",
    "version": 1
  }
}